{
  "contractName": "Dex",
  "abi": [
    {
      "anonymous": false,
      "inputs": [
        {
          "indexed": true,
          "internalType": "address",
          "name": "previousOwner",
          "type": "address"
        },
        {
          "indexed": true,
          "internalType": "address",
          "name": "newOwner",
          "type": "address"
        }
      ],
      "name": "OwnershipTransferred",
      "type": "event"
    },
    {
      "inputs": [
        {
          "internalType": "bytes32",
          "name": "ticker",
          "type": "bytes32"
        },
        {
          "internalType": "address",
          "name": "tokenAddress",
          "type": "address"
        }
      ],
      "name": "addToken",
      "outputs": [],
      "stateMutability": "nonpayable",
      "type": "function"
    },
    {
      "inputs": [
        {
          "internalType": "address",
          "name": "",
          "type": "address"
        },
        {
          "internalType": "bytes32",
          "name": "",
          "type": "bytes32"
        }
      ],
      "name": "balances",
      "outputs": [
        {
          "internalType": "uint256",
          "name": "",
          "type": "uint256"
        }
      ],
      "stateMutability": "view",
      "type": "function",
      "constant": true
    },
    {
      "inputs": [
        {
          "internalType": "uint256",
          "name": "amount",
          "type": "uint256"
        },
        {
          "internalType": "bytes32",
          "name": "ticker",
          "type": "bytes32"
        }
      ],
      "name": "deposit",
      "outputs": [],
      "stateMutability": "nonpayable",
      "type": "function"
    },
    {
      "inputs": [],
      "name": "depositEth",
      "outputs": [],
      "stateMutability": "payable",
      "type": "function",
      "payable": true
    },
    {
      "inputs": [],
      "name": "nextOrderId",
      "outputs": [
        {
          "internalType": "uint256",
          "name": "",
          "type": "uint256"
        }
      ],
      "stateMutability": "view",
      "type": "function",
      "constant": true
    },
    {
      "inputs": [
        {
          "internalType": "bytes32",
          "name": "",
          "type": "bytes32"
        },
        {
          "internalType": "uint256",
          "name": "",
          "type": "uint256"
        },
        {
          "internalType": "uint256",
          "name": "",
          "type": "uint256"
        }
      ],
      "name": "orderBook",
      "outputs": [
        {
          "internalType": "uint256",
          "name": "id",
          "type": "uint256"
        },
        {
          "internalType": "address",
          "name": "trader",
          "type": "address"
        },
        {
          "internalType": "enum Dex.Side",
          "name": "side",
          "type": "uint8"
        },
        {
          "internalType": "bytes32",
          "name": "ticker",
          "type": "bytes32"
        },
        {
          "internalType": "uint256",
          "name": "amount",
          "type": "uint256"
        },
        {
          "internalType": "uint256",
          "name": "price",
          "type": "uint256"
        }
      ],
      "stateMutability": "view",
      "type": "function",
      "constant": true
    },
    {
      "inputs": [],
      "name": "owner",
      "outputs": [
        {
          "internalType": "address",
          "name": "",
          "type": "address"
        }
      ],
      "stateMutability": "view",
      "type": "function",
      "constant": true
    },
    {
      "inputs": [],
      "name": "renounceOwnership",
      "outputs": [],
      "stateMutability": "nonpayable",
      "type": "function"
    },
    {
      "inputs": [
        {
          "internalType": "uint256",
          "name": "",
          "type": "uint256"
        }
      ],
      "name": "tokenList",
      "outputs": [
        {
          "internalType": "bytes32",
          "name": "",
          "type": "bytes32"
        }
      ],
      "stateMutability": "view",
      "type": "function",
      "constant": true
    },
    {
      "inputs": [
        {
          "internalType": "bytes32",
          "name": "",
          "type": "bytes32"
        }
      ],
      "name": "tokenMapping",
      "outputs": [
        {
          "internalType": "bytes32",
          "name": "ticker",
          "type": "bytes32"
        },
        {
          "internalType": "address",
          "name": "tokenAddress",
          "type": "address"
        }
      ],
      "stateMutability": "view",
      "type": "function",
      "constant": true
    },
    {
      "inputs": [
        {
          "internalType": "address",
          "name": "newOwner",
          "type": "address"
        }
      ],
      "name": "transferOwnership",
      "outputs": [],
      "stateMutability": "nonpayable",
      "type": "function"
    },
    {
      "inputs": [
        {
          "internalType": "uint256",
          "name": "amount",
          "type": "uint256"
        },
        {
          "internalType": "bytes32",
          "name": "ticker",
          "type": "bytes32"
        }
      ],
      "name": "withdraw",
      "outputs": [],
      "stateMutability": "nonpayable",
      "type": "function"
    },
    {
      "inputs": [
        {
          "internalType": "bytes32",
          "name": "ticker",
          "type": "bytes32"
        },
        {
          "internalType": "enum Dex.Side",
          "name": "side",
          "type": "uint8"
        }
      ],
      "name": "getOrderBook",
      "outputs": [
        {
          "components": [
            {
              "internalType": "uint256",
              "name": "id",
              "type": "uint256"
            },
            {
              "internalType": "address",
              "name": "trader",
              "type": "address"
            },
            {
              "internalType": "enum Dex.Side",
              "name": "side",
              "type": "uint8"
            },
            {
              "internalType": "bytes32",
              "name": "ticker",
              "type": "bytes32"
            },
            {
              "internalType": "uint256",
              "name": "amount",
              "type": "uint256"
            },
            {
              "internalType": "uint256",
              "name": "price",
              "type": "uint256"
            }
          ],
          "internalType": "struct Dex.Order[]",
          "name": "",
          "type": "tuple[]"
        }
      ],
      "stateMutability": "view",
      "type": "function",
      "constant": true
    },
    {
      "inputs": [
        {
          "internalType": "enum Dex.Side",
          "name": "side",
          "type": "uint8"
        },
        {
          "internalType": "bytes32",
          "name": "ticker",
          "type": "bytes32"
        },
        {
          "internalType": "uint256",
          "name": "amount",
          "type": "uint256"
        },
        {
          "internalType": "uint256",
          "name": "price",
          "type": "uint256"
        }
      ],
      "name": "createLimitOrder",
      "outputs": [],
      "stateMutability": "nonpayable",
      "type": "function"
    },
    {
      "inputs": [
        {
          "internalType": "enum Dex.Side",
          "name": "side",
          "type": "uint8"
        },
        {
          "internalType": "bytes32",
          "name": "ticker",
          "type": "bytes32"
        },
        {
          "internalType": "uint256",
          "name": "amount",
          "type": "uint256"
        }
      ],
      "name": "createMarketOrder",
      "outputs": [],
      "stateMutability": "nonpayable",
      "type": "function"
    }
  ],
  "bytecode": "0x608060405260006004553480156200001657600080fd5b50620000376200002b6200003d60201b60201c565b6200004560201b60201c565b62000109565b600033905090565b60008060009054906101000a900473ffffffffffffffffffffffffffffffffffffffff169050816000806101000a81548173ffffffffffffffffffffffffffffffffffffffff021916908373ffffffffffffffffffffffffffffffffffffffff1602179055508173ffffffffffffffffffffffffffffffffffffffff168173ffffffffffffffffffffffffffffffffffffffff167f8be0079c531659141344cd1fd0a4f28419497f9722a3daafe3b4186f6b6457e060405160405180910390a35050565b6127f480620001196000396000f3fe6080604052600436106100e85760003560e01c80638da5cb5b1161008a578063a8d2021a11610059578063a8d2021a146102d9578063ba58ea6814610302578063c9630cb01461033f578063f2fde38b14610368576100e8565b80638da5cb5b1461021f5780639776aacf1461024a57806399ec2f1c146102735780639ead72221461029c576100e8565b8063439370b1116100c6578063439370b114610197578063667cb4ba146101a15780636f3b62f9146101df578063715018a614610208576100e8565b80630bb431b6146100ed5780631f14df691461012f5780632a58b3301461016c575b600080fd5b3480156100f957600080fd5b50610114600480360381019061010f9190611b58565b610391565b60405161012696959493929190611c81565b60405180910390f35b34801561013b57600080fd5b5061015660048036038101906101519190611d0e565b610424565b6040516101639190611d4e565b60405180910390f35b34801561017857600080fd5b50610181610449565b60405161018e9190611d4e565b60405180910390f35b61019f61044f565b005b3480156101ad57600080fd5b506101c860048036038101906101c39190611d69565b610548565b6040516101d6929190611d96565b60405180910390f35b3480156101eb57600080fd5b5061020660048036038101906102019190611de4565b61058c565b005b34801561021457600080fd5b5061021d610f7b565b005b34801561022b57600080fd5b50610234610f8f565b6040516102419190611e4b565b60405180910390f35b34801561025657600080fd5b50610271600480360381019061026c9190611e66565b610fb8565b005b34801561027f57600080fd5b5061029a60048036038101906102959190611ea6565b61107f565b005b3480156102a857600080fd5b506102c360048036038101906102be9190611ef9565b611084565b6040516102d09190611f26565b60405180910390f35b3480156102e557600080fd5b5061030060048036038101906102fb9190611f41565b6110a8565b005b34801561030e57600080fd5b5061032960048036038101906103249190611f81565b611257565b6040516103369190612127565b60405180910390f35b34801561034b57600080fd5b5061036660048036038101906103619190611f41565b6113a6565b005b34801561037457600080fd5b5061038f600480360381019061038a9190612149565b611535565b005b600560205282600052604060002060205281600052604060002081815481106103b957600080fd5b906000526020600020906005020160009250925050508060000154908060010160009054906101000a900473ffffffffffffffffffffffffffffffffffffffff16908060010160149054906101000a900460ff16908060020154908060030154908060040154905086565b6003602052816000526040600020602052806000526040600020600091509150505481565b60045481565b6104d234600360003373ffffffffffffffffffffffffffffffffffffffff1673ffffffffffffffffffffffffffffffffffffffff16815260200190815260200160002060007f45544800000000000000000000000000000000000000000000000000000000008152602001908152602001600020546115b890919063ffffffff16565b600360003373ffffffffffffffffffffffffffffffffffffffff1673ffffffffffffffffffffffffffffffffffffffff16815260200190815260200160002060007f4554480000000000000000000000000000000000000000000000000000000000815260200190815260200160002081905550565b60016020528060005260406000206000915090508060000154908060010160009054906101000a900473ffffffffffffffffffffffffffffffffffffffff16905082565b600060018111156105a05761059f611bfb565b5b8460018111156105b3576105b2611bfb565b5b0361064c576105cb81836115ce90919063ffffffff16565b600360003373ffffffffffffffffffffffffffffffffffffffff1673ffffffffffffffffffffffffffffffffffffffff16815260200190815260200160002060007f4554480000000000000000000000000000000000000000000000000000000000815260200190815260200160002054101561064757600080fd5b6106d6565b60018081111561065f5761065e611bfb565b5b84600181111561067257610671611bfb565b5b036106d55781600360003373ffffffffffffffffffffffffffffffffffffffff1673ffffffffffffffffffffffffffffffffffffffff16815260200190815260200160002060008581526020019081526020016000205410156106d457600080fd5b5b5b6000600560008581526020019081526020016000206000866001811115610700576106ff611bfb565b5b81526020019081526020016000209050806040518060c0016040528060045481526020013373ffffffffffffffffffffffffffffffffffffffff16815260200187600181111561075357610752611bfb565b5b81526020018681526020018581526020018481525090806001815401808255809150506001900390600052602060002090600502016000909190919091506000820151816000015560208201518160010160006101000a81548173ffffffffffffffffffffffffffffffffffffffff021916908373ffffffffffffffffffffffffffffffffffffffff16021790555060408201518160010160146101000a81548160ff0219169083600181111561080d5761080c611bfb565b5b0217905550606082015181600201556080820151816003015560a0820151816004015550506000808280549050905060008111156108595760018161085291906121a5565b915061085e565b600091505b6000600181111561087257610871611bfb565b5b87600181111561088557610884611bfb565b5b03610bde575b6000821115610bd9578282815481106108a7576108a66121d9565b5b906000526020600020906005020160040154836001846108c791906121a5565b815481106108d8576108d76121d9565b5b90600052602060002090600502016004015411610bd9576000836001846108ff91906121a5565b815481106109105761090f6121d9565b5b90600052602060002090600502016040518060c0016040529081600082015481526020016001820160009054906101000a900473ffffffffffffffffffffffffffffffffffffffff1673ffffffffffffffffffffffffffffffffffffffff1673ffffffffffffffffffffffffffffffffffffffff1681526020016001820160149054906101000a900460ff1660018111156109ae576109ad611bfb565b5b60018111156109c0576109bf611bfb565b5b8152602001600282015481526020016003820154815260200160048201548152505090508383815481106109f7576109f66121d9565b5b906000526020600020906005020184600185610a1391906121a5565b81548110610a2457610a236121d9565b5b9060005260206000209060050201600082015481600001556001820160009054906101000a900473ffffffffffffffffffffffffffffffffffffffff168160010160006101000a81548173ffffffffffffffffffffffffffffffffffffffff021916908373ffffffffffffffffffffffffffffffffffffffff1602179055506001820160149054906101000a900460ff168160010160146101000a81548160ff02191690836001811115610adb57610ada611bfb565b5b021790555060028201548160020155600382015481600301556004820154816004015590505080848481548110610b1557610b146121d9565b5b90600052602060002090600502016000820151816000015560208201518160010160006101000a81548173ffffffffffffffffffffffffffffffffffffffff021916908373ffffffffffffffffffffffffffffffffffffffff16021790555060408201518160010160146101000a81548160ff02191690836001811115610b9f57610b9e611bfb565b5b0217905550606082015181600201556080820151816003015560a082015181600401559050508280610bd090612208565b9350505061088b565b610f5a565b600180811115610bf157610bf0611bfb565b5b876001811115610c0457610c03611bfb565b5b03610f59575b6000821115610f5857828281548110610c2657610c256121d9565b5b90600052602060002090600502016004015483600184610c4691906121a5565b81548110610c5757610c566121d9565b5b90600052602060002090600502016004015410610f5857600083600184610c7e91906121a5565b81548110610c8f57610c8e6121d9565b5b90600052602060002090600502016040518060c0016040529081600082015481526020016001820160009054906101000a900473ffffffffffffffffffffffffffffffffffffffff1673ffffffffffffffffffffffffffffffffffffffff1673ffffffffffffffffffffffffffffffffffffffff1681526020016001820160149054906101000a900460ff166001811115610d2d57610d2c611bfb565b5b6001811115610d3f57610d3e611bfb565b5b815260200160028201548152602001600382015481526020016004820154815250509050838381548110610d7657610d756121d9565b5b906000526020600020906005020184600185610d9291906121a5565b81548110610da357610da26121d9565b5b9060005260206000209060050201600082015481600001556001820160009054906101000a900473ffffffffffffffffffffffffffffffffffffffff168160010160006101000a81548173ffffffffffffffffffffffffffffffffffffffff021916908373ffffffffffffffffffffffffffffffffffffffff1602179055506001820160149054906101000a900460ff168160010160146101000a81548160ff02191690836001811115610e5a57610e59611bfb565b5b021790555060028201548160020155600382015481600301556004820154816004015590505080848481548110610e9457610e936121d9565b5b90600052602060002090600502016000820151816000015560208201518160010160006101000a81548173ffffffffffffffffffffffffffffffffffffffff021916908373ffffffffffffffffffffffffffffffffffffffff16021790555060408201518160010160146101000a81548160ff02191690836001811115610f1e57610f1d611bfb565b5b0217905550606082015181600201556080820151816003015560a082015181600401559050508280610f4f90612208565b93505050610c0a565b5b5b60046000815480929190610f6d90612231565b919050555050505050505050565b610f836115e4565b610f8d6000611662565b565b60008060009054906101000a900473ffffffffffffffffffffffffffffffffffffffff16905090565b610fc06115e4565b60405180604001604052808381526020018273ffffffffffffffffffffffffffffffffffffffff16815250600160008481526020019081526020016000206000820151816000015560208201518160010160006101000a81548173ffffffffffffffffffffffffffffffffffffffff021916908373ffffffffffffffffffffffffffffffffffffffff16021790555090505060028290806001815401808255809150506001900390600052602060002001600090919091909150555050565b505050565b6002818154811061109457600080fd5b906000526020600020016000915090505481565b81600360003373ffffffffffffffffffffffffffffffffffffffff1673ffffffffffffffffffffffffffffffffffffffff168152602001908152602001600020600083815260200190815260200160002054101561113b576040517f08c379a0000000000000000000000000000000000000000000000000000000008152600401611132906122d6565b60405180910390fd5b61119e82600360003373ffffffffffffffffffffffffffffffffffffffff1673ffffffffffffffffffffffffffffffffffffffff16815260200190815260200160002060008481526020019081526020016000205461172690919063ffffffff16565b600360003373ffffffffffffffffffffffffffffffffffffffff1673ffffffffffffffffffffffffffffffffffffffff16815260200190815260200160002060008381526020019081526020016000208190555061125333836001600085815260200190815260200160002060010160009054906101000a900473ffffffffffffffffffffffffffffffffffffffff1673ffffffffffffffffffffffffffffffffffffffff1661173c9092919063ffffffff16565b5050565b606060056000848152602001908152602001600020600083600181111561128157611280611bfb565b5b8152602001908152602001600020805480602002602001604051908101604052809291908181526020016000905b8282101561139a57838290600052602060002090600502016040518060c0016040529081600082015481526020016001820160009054906101000a900473ffffffffffffffffffffffffffffffffffffffff1673ffffffffffffffffffffffffffffffffffffffff1673ffffffffffffffffffffffffffffffffffffffff1681526020016001820160149054906101000a900460ff16600181111561135757611356611bfb565b5b600181111561136957611368611bfb565b5b81526020016002820154815260200160038201548152602001600482015481525050815260200190600101906112af565b50505050905092915050565b80600073ffffffffffffffffffffffffffffffffffffffff166001600083815260200190815260200160002060010160009054906101000a900473ffffffffffffffffffffffffffffffffffffffff1673ffffffffffffffffffffffffffffffffffffffff160361141657600080fd5b6114793330856001600087815260200190815260200160002060010160009054906101000a900473ffffffffffffffffffffffffffffffffffffffff1673ffffffffffffffffffffffffffffffffffffffff166117c2909392919063ffffffff16565b6114dc83600360003373ffffffffffffffffffffffffffffffffffffffff1673ffffffffffffffffffffffffffffffffffffffff1681526020019081526020016000206000858152602001908152602001600020546115b890919063ffffffff16565b600360003373ffffffffffffffffffffffffffffffffffffffff1673ffffffffffffffffffffffffffffffffffffffff168152602001908152602001600020600084815260200190815260200160002081905550505050565b61153d6115e4565b600073ffffffffffffffffffffffffffffffffffffffff168173ffffffffffffffffffffffffffffffffffffffff16036115ac576040517f08c379a00000000000000000000000000000000000000000000000000000000081526004016115a390612368565b60405180910390fd5b6115b581611662565b50565b600081836115c69190612388565b905092915050565b600081836115dc91906123bc565b905092915050565b6115ec61184b565b73ffffffffffffffffffffffffffffffffffffffff1661160a610f8f565b73ffffffffffffffffffffffffffffffffffffffff1614611660576040517f08c379a00000000000000000000000000000000000000000000000000000000081526004016116579061244a565b60405180910390fd5b565b60008060009054906101000a900473ffffffffffffffffffffffffffffffffffffffff169050816000806101000a81548173ffffffffffffffffffffffffffffffffffffffff021916908373ffffffffffffffffffffffffffffffffffffffff1602179055508173ffffffffffffffffffffffffffffffffffffffff168173ffffffffffffffffffffffffffffffffffffffff167f8be0079c531659141344cd1fd0a4f28419497f9722a3daafe3b4186f6b6457e060405160405180910390a35050565b6000818361173491906121a5565b905092915050565b6117bd8363a9059cbb60e01b848460405160240161175b92919061246a565b604051602081830303815290604052907bffffffffffffffffffffffffffffffffffffffffffffffffffffffff19166020820180517bffffffffffffffffffffffffffffffffffffffffffffffffffffffff8381831617835250505050611853565b505050565b611845846323b872dd60e01b8585856040516024016117e393929190612493565b604051602081830303815290604052907bffffffffffffffffffffffffffffffffffffffffffffffffffffffff19166020820180517bffffffffffffffffffffffffffffffffffffffffffffffffffffffff8381831617835250505050611853565b50505050565b600033905090565b60006118b5826040518060400160405280602081526020017f5361666545524332303a206c6f772d6c6576656c2063616c6c206661696c65648152508573ffffffffffffffffffffffffffffffffffffffff1661191a9092919063ffffffff16565b905060008151111561191557808060200190518101906118d59190612502565b611914576040517f08c379a000000000000000000000000000000000000000000000000000000000815260040161190b906125a1565b60405180910390fd5b5b505050565b60606119298484600085611932565b90509392505050565b606082471015611977576040517f08c379a000000000000000000000000000000000000000000000000000000000815260040161196e90612633565b60405180910390fd5b6000808673ffffffffffffffffffffffffffffffffffffffff1685876040516119a091906126c4565b60006040518083038185875af1925050503d80600081146119dd576040519150601f19603f3d011682016040523d82523d6000602084013e6119e2565b606091505b50915091506119f3878383876119ff565b92505050949350505050565b60608315611a61576000835103611a5957611a1985611a74565b611a58576040517f08c379a0000000000000000000000000000000000000000000000000000000008152600401611a4f90612727565b60405180910390fd5b5b829050611a6c565b611a6b8383611a97565b5b949350505050565b6000808273ffffffffffffffffffffffffffffffffffffffff163b119050919050565b600082511115611aaa5781518083602001fd5b806040517f08c379a0000000000000000000000000000000000000000000000000000000008152600401611ade919061279c565b60405180910390fd5b600080fd5b6000819050919050565b611aff81611aec565b8114611b0a57600080fd5b50565b600081359050611b1c81611af6565b92915050565b6000819050919050565b611b3581611b22565b8114611b4057600080fd5b50565b600081359050611b5281611b2c565b92915050565b600080600060608486031215611b7157611b70611ae7565b5b6000611b7f86828701611b0d565b9350506020611b9086828701611b43565b9250506040611ba186828701611b43565b9150509250925092565b611bb481611b22565b82525050565b600073ffffffffffffffffffffffffffffffffffffffff82169050919050565b6000611be582611bba565b9050919050565b611bf581611bda565b82525050565b7f4e487b7100000000000000000000000000000000000000000000000000000000600052602160045260246000fd5b60028110611c3b57611c3a611bfb565b5b50565b6000819050611c4c82611c2a565b919050565b6000611c5c82611c3e565b9050919050565b611c6c81611c51565b82525050565b611c7b81611aec565b82525050565b600060c082019050611c966000830189611bab565b611ca36020830188611bec565b611cb06040830187611c63565b611cbd6060830186611c72565b611cca6080830185611bab565b611cd760a0830184611bab565b979650505050505050565b611ceb81611bda565b8114611cf657600080fd5b50565b600081359050611d0881611ce2565b92915050565b60008060408385031215611d2557611d24611ae7565b5b6000611d3385828601611cf9565b9250506020611d4485828601611b0d565b9150509250929050565b6000602082019050611d636000830184611bab565b92915050565b600060208284031215611d7f57611d7e611ae7565b5b6000611d8d84828501611b0d565b91505092915050565b6000604082019050611dab6000830185611c72565b611db86020830184611bec565b9392505050565b60028110611dcc57600080fd5b50565b600081359050611dde81611dbf565b92915050565b60008060008060808587031215611dfe57611dfd611ae7565b5b6000611e0c87828801611dcf565b9450506020611e1d87828801611b0d565b9350506040611e2e87828801611b43565b9250506060611e3f87828801611b43565b91505092959194509250565b6000602082019050611e606000830184611bec565b92915050565b60008060408385031215611e7d57611e7c611ae7565b5b6000611e8b85828601611b0d565b9250506020611e9c85828601611cf9565b9150509250929050565b600080600060608486031215611ebf57611ebe611ae7565b5b6000611ecd86828701611dcf565b9350506020611ede86828701611b0d565b9250506040611eef86828701611b43565b9150509250925092565b600060208284031215611f0f57611f0e611ae7565b5b6000611f1d84828501611b43565b91505092915050565b6000602082019050611f3b6000830184611c72565b92915050565b60008060408385031215611f5857611f57611ae7565b5b6000611f6685828601611b43565b9250506020611f7785828601611b0d565b9150509250929050565b60008060408385031215611f9857611f97611ae7565b5b6000611fa685828601611b0d565b9250506020611fb785828601611dcf565b9150509250929050565b600081519050919050565b600082825260208201905092915050565b6000819050602082019050919050565b611ff681611b22565b82525050565b61200581611bda565b82525050565b61201481611c51565b82525050565b61202381611aec565b82525050565b60c08201600082015161203f6000850182611fed565b5060208201516120526020850182611ffc565b506040820151612065604085018261200b565b506060820151612078606085018261201a565b50608082015161208b6080850182611fed565b5060a082015161209e60a0850182611fed565b50505050565b60006120b08383612029565b60c08301905092915050565b6000602082019050919050565b60006120d482611fc1565b6120de8185611fcc565b93506120e983611fdd565b8060005b8381101561211a57815161210188826120a4565b975061210c836120bc565b9250506001810190506120ed565b5085935050505092915050565b6000602082019050818103600083015261214181846120c9565b905092915050565b60006020828403121561215f5761215e611ae7565b5b600061216d84828501611cf9565b91505092915050565b7f4e487b7100000000000000000000000000000000000000000000000000000000600052601160045260246000fd5b60006121b082611b22565b91506121bb83611b22565b92508282039050818111156121d3576121d2612176565b5b92915050565b7f4e487b7100000000000000000000000000000000000000000000000000000000600052603260045260246000fd5b600061221382611b22565b91506000820361222657612225612176565b5b600182039050919050565b600061223c82611b22565b91507fffffffffffffffffffffffffffffffffffffffffffffffffffffffffffffffff820361226e5761226d612176565b5b600182019050919050565b600082825260208201905092915050565b7f496e73756666696369656e742042616c616e6365000000000000000000000000600082015250565b60006122c0601483612279565b91506122cb8261228a565b602082019050919050565b600060208201905081810360008301526122ef816122b3565b9050919050565b7f4f776e61626c653a206e6577206f776e657220697320746865207a65726f206160008201527f6464726573730000000000000000000000000000000000000000000000000000602082015250565b6000612352602683612279565b915061235d826122f6565b604082019050919050565b6000602082019050818103600083015261238181612345565b9050919050565b600061239382611b22565b915061239e83611b22565b92508282019050808211156123b6576123b5612176565b5b92915050565b60006123c782611b22565b91506123d283611b22565b92508282026123e081611b22565b915082820484148315176123f7576123f6612176565b5b5092915050565b7f4f776e61626c653a2063616c6c6572206973206e6f7420746865206f776e6572600082015250565b6000612434602083612279565b915061243f826123fe565b602082019050919050565b6000602082019050818103600083015261246381612427565b9050919050565b600060408201905061247f6000830185611bec565b61248c6020830184611bab565b9392505050565b60006060820190506124a86000830186611bec565b6124b56020830185611bec565b6124c26040830184611bab565b949350505050565b60008115159050919050565b6124df816124ca565b81146124ea57600080fd5b50565b6000815190506124fc816124d6565b92915050565b60006020828403121561251857612517611ae7565b5b6000612526848285016124ed565b91505092915050565b7f5361666545524332303a204552433230206f7065726174696f6e20646964206e60008201527f6f74207375636365656400000000000000000000000000000000000000000000602082015250565b600061258b602a83612279565b91506125968261252f565b604082019050919050565b600060208201905081810360008301526125ba8161257e565b9050919050565b7f416464726573733a20696e73756666696369656e742062616c616e636520666f60008201527f722063616c6c0000000000000000000000000000000000000000000000000000602082015250565b600061261d602683612279565b9150612628826125c1565b604082019050919050565b6000602082019050818103600083015261264c81612610565b9050919050565b600081519050919050565b600081905092915050565b60005b8381101561268757808201518184015260208101905061266c565b60008484015250505050565b600061269e82612653565b6126a8818561265e565b93506126b8818560208601612669565b80840191505092915050565b60006126d08284612693565b915081905092915050565b7f416464726573733a2063616c6c20746f206e6f6e2d636f6e7472616374000000600082015250565b6000612711601d83612279565b915061271c826126db565b602082019050919050565b6000602082019050818103600083015261274081612704565b9050919050565b600081519050919050565b6000601f19601f8301169050919050565b600061276e82612747565b6127788185612279565b9350612788818560208601612669565b61279181612752565b840191505092915050565b600060208201905081810360008301526127b68184612763565b90509291505056fea2646970667358221220950b1d7183c02dd5a6c864033b2329c401e836ae5092645eba6aacfa0f9d685864736f6c63430008120033",
  "immutableReferences": {},
  "source": "// SPDX-License-Identifier: MIT\r\npragma solidity >=0.6.0 ^0.8.0;\r\npragma experimental ABIEncoderV2;\r\nimport \"./Wallet.sol\";\r\n\r\ncontract Dex is Wallet{\r\n\r\n    using SafeMath for uint256;\r\n\r\n    enum Side{\r\n    Buy,\r\n    Sell\r\n    }\r\n\r\n    struct Order{\r\n        uint id;\r\n        address trader;\r\n        Side side;\r\n        bytes32 ticker;\r\n        uint amount;\r\n        uint price;\r\n        //uint filled;\r\n    }\r\n\r\n    uint public nextOrderId = 0;\r\n    \r\n    mapping(bytes32 => mapping(uint => Order[])) public orderBook;\r\n\r\n\r\n    function getOrderBook(bytes32 ticker, Side side) public view returns(Order[] memory){\r\n        return orderBook[ticker][uint(side)];\r\n    }\r\n\r\n    function createLimitOrder(Side side, bytes32 ticker, uint amount, uint price) public {\r\n             if(side == Side.Buy){\r\n                 require(balances[msg.sender][\"ETH\"] >= amount.mul(price));\r\n                }\r\n\r\n                else if(side == Side.Sell){\r\n                require(balances[msg.sender][ticker] >= amount);\r\n            }\r\n\r\n            Order[] storage orders = orderBook[ticker][uint(side)];\r\n            orders.push(Order(nextOrderId, msg.sender, side, ticker, amount, price));\r\n\r\n            //Bubble Sort\r\n            uint i; //i set and equal to 0\r\n            uint orderlist = orders.length; //number of orders in the order[] array\r\n            if(orderlist > 0 ){\r\n                i = orderlist - 1;\r\n                }   else {\r\n                i = 0;\r\n                }\r\n\r\n                \r\n            if(side == Side.Buy){\r\n                //A Do-While loop checks if orders[] is already sorted\r\n                while(i > 0){\r\n                    if(orders[i -1].price > orders[i].price) {\r\n                        break;\r\n                    }\r\n                    //Sort orders[] from Highest to Lowest\r\n                    Order memory orderToMove = orders[i-1]; //Create a variable of type Order (like uint) to store orders[index - 1] in memory\r\n                    orders[i-1] = orders[i]; //Change the value of orders[index-1] to order[index]\r\n                    orders[i] = orderToMove; //Now change the value of order[i] to order[i-1] via variable orderToMove\r\n                    i--; //After the line above i is now set to the last item in the array. Use i-- to go back one place\r\n                }\r\n\r\n            }\r\n\r\n            \r\n            else if (side == Side.Sell) {\r\n                //A Do-While loop checks if orders[] is already sorted\r\n                while(i > 0){\r\n                    if(orders[i -1].price < orders[i].price) {\r\n                        break;\r\n                    }\r\n                    //Sort orders[] from Lowest to Highest \r\n                    Order memory orderToMove = orders[i-1]; //Create a variable of type Order (like uint) to store orders[index - 1] in memory\r\n                    orders[i-1] = orders[i]; //Change the value of orders[index-1] to order[index]\r\n                    orders[i] = orderToMove; //Now change the value of order[i] to order[i-1] via variable orderToMove\r\n                    i--; //After the line above i is now set to the last item in the array. Use i-- to go back one place\r\n                }  \r\n\r\n            }      \r\n            \r\n            nextOrderId++;              \r\n        }\r\n\r\n        function createMarketOrder(Side side, bytes32 ticker, uint amount) public {\r\n            \r\n        }\r\n    \r\n}\r\n\r\n",
  "sourcePath": "C:\\Users\\kaz\\OneDrive - #AskBlockchain\\contracts\\DEX\\contracts\\Dex.sol",
  "compiler": {
    "name": "solc",
    "version": "0.8.18+commit.87f61d96.Emscripten.clang"
  },
  "schemaVersion": "3.4.8",
  "updatedAt": "2023-02-06T11:35:48.523Z",
  "networkType": "ethereum",
  "devdoc": {
    "kind": "dev",
    "methods": {
      "owner()": {
        "details": "Returns the address of the current owner."
      },
      "renounceOwnership()": {
        "details": "Leaves the contract without owner. It will not be possible to call `onlyOwner` functions anymore. Can only be called by the current owner. NOTE: Renouncing ownership will leave the contract without an owner, thereby removing any functionality that is only available to the owner."
      },
      "transferOwnership(address)": {
        "details": "Transfers ownership of the contract to a new account (`newOwner`). Can only be called by the current owner."
      }
    },
    "version": 1
  },
  "userdoc": {
    "kind": "user",
    "methods": {},
    "version": 1
  }
}