{
  "contractName": "Dex",
  "abi": [
    {
      "anonymous": false,
      "inputs": [
        {
          "indexed": true,
          "internalType": "address",
          "name": "previousOwner",
          "type": "address"
        },
        {
          "indexed": true,
          "internalType": "address",
          "name": "newOwner",
          "type": "address"
        }
      ],
      "name": "OwnershipTransferred",
      "type": "event"
    },
    {
      "inputs": [
        {
          "internalType": "bytes32",
          "name": "ticker",
          "type": "bytes32"
        },
        {
          "internalType": "address",
          "name": "tokenAddress",
          "type": "address"
        }
      ],
      "name": "addToken",
      "outputs": [],
      "stateMutability": "nonpayable",
      "type": "function"
    },
    {
      "inputs": [
        {
          "internalType": "address",
          "name": "",
          "type": "address"
        },
        {
          "internalType": "bytes32",
          "name": "",
          "type": "bytes32"
        }
      ],
      "name": "balances",
      "outputs": [
        {
          "internalType": "uint256",
          "name": "",
          "type": "uint256"
        }
      ],
      "stateMutability": "view",
      "type": "function"
    },
    {
      "inputs": [
        {
          "internalType": "uint256",
          "name": "amount",
          "type": "uint256"
        },
        {
          "internalType": "bytes32",
          "name": "ticker",
          "type": "bytes32"
        }
      ],
      "name": "deposit",
      "outputs": [],
      "stateMutability": "nonpayable",
      "type": "function"
    },
    {
      "inputs": [
        {
          "internalType": "bytes32",
          "name": "",
          "type": "bytes32"
        },
        {
          "internalType": "uint256",
          "name": "",
          "type": "uint256"
        },
        {
          "internalType": "uint256",
          "name": "",
          "type": "uint256"
        }
      ],
      "name": "orderBook",
      "outputs": [
        {
          "internalType": "uint256",
          "name": "id",
          "type": "uint256"
        },
        {
          "internalType": "address",
          "name": "trader",
          "type": "address"
        },
        {
          "internalType": "bool",
          "name": "buyOrder",
          "type": "bool"
        },
        {
          "internalType": "uint256",
          "name": "amount",
          "type": "uint256"
        },
        {
          "internalType": "uint256",
          "name": "price",
          "type": "uint256"
        }
      ],
      "stateMutability": "view",
      "type": "function"
    },
    {
      "inputs": [],
      "name": "owner",
      "outputs": [
        {
          "internalType": "address",
          "name": "",
          "type": "address"
        }
      ],
      "stateMutability": "view",
      "type": "function"
    },
    {
      "inputs": [],
      "name": "renounceOwnership",
      "outputs": [],
      "stateMutability": "nonpayable",
      "type": "function"
    },
    {
      "inputs": [
        {
          "internalType": "uint256",
          "name": "",
          "type": "uint256"
        }
      ],
      "name": "tokenList",
      "outputs": [
        {
          "internalType": "bytes32",
          "name": "",
          "type": "bytes32"
        }
      ],
      "stateMutability": "view",
      "type": "function"
    },
    {
      "inputs": [
        {
          "internalType": "bytes32",
          "name": "",
          "type": "bytes32"
        }
      ],
      "name": "tokenMapping",
      "outputs": [
        {
          "internalType": "bytes32",
          "name": "ticker",
          "type": "bytes32"
        },
        {
          "internalType": "address",
          "name": "tokenAddress",
          "type": "address"
        }
      ],
      "stateMutability": "view",
      "type": "function"
    },
    {
      "inputs": [
        {
          "internalType": "address",
          "name": "newOwner",
          "type": "address"
        }
      ],
      "name": "transferOwnership",
      "outputs": [],
      "stateMutability": "nonpayable",
      "type": "function"
    },
    {
      "inputs": [
        {
          "internalType": "uint256",
          "name": "amount",
          "type": "uint256"
        },
        {
          "internalType": "bytes32",
          "name": "ticker",
          "type": "bytes32"
        }
      ],
      "name": "withdraw",
      "outputs": [],
      "stateMutability": "nonpayable",
      "type": "function"
    },
    {
      "inputs": [
        {
          "internalType": "bytes32",
          "name": "ticker",
          "type": "bytes32"
        },
        {
          "internalType": "enum Side",
          "name": "side",
          "type": "uint8"
        }
      ],
      "name": "getOrderBook",
      "outputs": [
        {
          "components": [
            {
              "internalType": "uint256",
              "name": "id",
              "type": "uint256"
            },
            {
              "internalType": "address",
              "name": "trader",
              "type": "address"
            },
            {
              "internalType": "bool",
              "name": "buyOrder",
              "type": "bool"
            },
            {
              "internalType": "uint256",
              "name": "amount",
              "type": "uint256"
            },
            {
              "internalType": "uint256",
              "name": "price",
              "type": "uint256"
            }
          ],
          "internalType": "struct Dex.Order[]",
          "name": "",
          "type": "tuple[]"
        }
      ],
      "stateMutability": "view",
      "type": "function"
    }
  ],
  "bytecode": "0x608060405234801561001057600080fd5b5061002d61002261003260201b60201c565b61003a60201b60201c565b6100fe565b600033905090565b60008060009054906101000a900473ffffffffffffffffffffffffffffffffffffffff169050816000806101000a81548173ffffffffffffffffffffffffffffffffffffffff021916908373ffffffffffffffffffffffffffffffffffffffff1602179055508173ffffffffffffffffffffffffffffffffffffffff168173ffffffffffffffffffffffffffffffffffffffff167f8be0079c531659141344cd1fd0a4f28419497f9722a3daafe3b4186f6b6457e060405160405180910390a35050565b61198b8061010d6000396000f3fe608060405234801561001057600080fd5b50600436106100a95760003560e01c80639776aacf116100715780639776aacf1461016b5780639ead722214610187578063a8d2021a146101b7578063ba58ea68146101d3578063c9630cb014610203578063f2fde38b1461021f576100a9565b80630bb431b6146100ae5780631f14df69146100e2578063667cb4ba14610112578063715018a6146101435780638da5cb5b1461014d575b600080fd5b6100c860048036038101906100c39190610ec9565b61023b565b6040516100d9959493929190610f87565b60405180910390f35b6100fc60048036038101906100f79190611006565b6102c8565b6040516101099190611046565b60405180910390f35b61012c60048036038101906101279190611061565b6102ed565b60405161013a92919061109d565b60405180910390f35b61014b610331565b005b610155610345565b60405161016291906110c6565b60405180910390f35b610185600480360381019061018091906110e1565b61036e565b005b6101a1600480360381019061019c9190611121565b610435565b6040516101ae919061114e565b60405180910390f35b6101d160048036038101906101cc9190611169565b610459565b005b6101ed60048036038101906101e891906111ce565b610608565b6040516101fa9190611352565b60405180910390f35b61021d60048036038101906102189190611169565b61072d565b005b61023960048036038101906102349190611374565b6108bc565b005b6004602052826000526040600020602052816000526040600020818154811061026357600080fd5b906000526020600020906004020160009250925050508060000154908060010160009054906101000a900473ffffffffffffffffffffffffffffffffffffffff16908060010160149054906101000a900460ff16908060020154908060030154905085565b6003602052816000526040600020602052806000526040600020600091509150505481565b60016020528060005260406000206000915090508060000154908060010160009054906101000a900473ffffffffffffffffffffffffffffffffffffffff16905082565b61033961093f565b61034360006109bd565b565b60008060009054906101000a900473ffffffffffffffffffffffffffffffffffffffff16905090565b61037661093f565b60405180604001604052808381526020018273ffffffffffffffffffffffffffffffffffffffff16815250600160008481526020019081526020016000206000820151816000015560208201518160010160006101000a81548173ffffffffffffffffffffffffffffffffffffffff021916908373ffffffffffffffffffffffffffffffffffffffff16021790555090505060028290806001815401808255809150506001900390600052602060002001600090919091909150555050565b6002818154811061044557600080fd5b906000526020600020016000915090505481565b81600360003373ffffffffffffffffffffffffffffffffffffffff1673ffffffffffffffffffffffffffffffffffffffff16815260200190815260200160002060008381526020019081526020016000205410156104ec576040517f08c379a00000000000000000000000000000000000000000000000000000000081526004016104e3906113fe565b60405180910390fd5b61054f82600360003373ffffffffffffffffffffffffffffffffffffffff1673ffffffffffffffffffffffffffffffffffffffff168152602001908152602001600020600084815260200190815260200160002054610a8190919063ffffffff16565b600360003373ffffffffffffffffffffffffffffffffffffffff1673ffffffffffffffffffffffffffffffffffffffff16815260200190815260200160002060008381526020019081526020016000208190555061060433836001600085815260200190815260200160002060010160009054906101000a900473ffffffffffffffffffffffffffffffffffffffff1673ffffffffffffffffffffffffffffffffffffffff16610a979092919063ffffffff16565b5050565b60606004600084815260200190815260200160002060008360018111156106325761063161141e565b5b8152602001908152602001600020805480602002602001604051908101604052809291908181526020016000905b8282101561072157838290600052602060002090600402016040518060a0016040529081600082015481526020016001820160009054906101000a900473ffffffffffffffffffffffffffffffffffffffff1673ffffffffffffffffffffffffffffffffffffffff1673ffffffffffffffffffffffffffffffffffffffff1681526020016001820160149054906101000a900460ff161515151581526020016002820154815260200160038201548152505081526020019060010190610660565b50505050905092915050565b80600073ffffffffffffffffffffffffffffffffffffffff166001600083815260200190815260200160002060010160009054906101000a900473ffffffffffffffffffffffffffffffffffffffff1673ffffffffffffffffffffffffffffffffffffffff160361079d57600080fd5b6108003330856001600087815260200190815260200160002060010160009054906101000a900473ffffffffffffffffffffffffffffffffffffffff1673ffffffffffffffffffffffffffffffffffffffff16610b1d909392919063ffffffff16565b61086383600360003373ffffffffffffffffffffffffffffffffffffffff1673ffffffffffffffffffffffffffffffffffffffff168152602001908152602001600020600085815260200190815260200160002054610ba690919063ffffffff16565b600360003373ffffffffffffffffffffffffffffffffffffffff1673ffffffffffffffffffffffffffffffffffffffff168152602001908152602001600020600084815260200190815260200160002081905550505050565b6108c461093f565b600073ffffffffffffffffffffffffffffffffffffffff168173ffffffffffffffffffffffffffffffffffffffff1603610933576040517f08c379a000000000000000000000000000000000000000000000000000000000815260040161092a906114bf565b60405180910390fd5b61093c816109bd565b50565b610947610bbc565b73ffffffffffffffffffffffffffffffffffffffff16610965610345565b73ffffffffffffffffffffffffffffffffffffffff16146109bb576040517f08c379a00000000000000000000000000000000000000000000000000000000081526004016109b29061152b565b60405180910390fd5b565b60008060009054906101000a900473ffffffffffffffffffffffffffffffffffffffff169050816000806101000a81548173ffffffffffffffffffffffffffffffffffffffff021916908373ffffffffffffffffffffffffffffffffffffffff1602179055508173ffffffffffffffffffffffffffffffffffffffff168173ffffffffffffffffffffffffffffffffffffffff167f8be0079c531659141344cd1fd0a4f28419497f9722a3daafe3b4186f6b6457e060405160405180910390a35050565b60008183610a8f919061157a565b905092915050565b610b188363a9059cbb60e01b8484604051602401610ab69291906115ae565b604051602081830303815290604052907bffffffffffffffffffffffffffffffffffffffffffffffffffffffff19166020820180517bffffffffffffffffffffffffffffffffffffffffffffffffffffffff8381831617835250505050610bc4565b505050565b610ba0846323b872dd60e01b858585604051602401610b3e939291906115d7565b604051602081830303815290604052907bffffffffffffffffffffffffffffffffffffffffffffffffffffffff19166020820180517bffffffffffffffffffffffffffffffffffffffffffffffffffffffff8381831617835250505050610bc4565b50505050565b60008183610bb4919061160e565b905092915050565b600033905090565b6000610c26826040518060400160405280602081526020017f5361666545524332303a206c6f772d6c6576656c2063616c6c206661696c65648152508573ffffffffffffffffffffffffffffffffffffffff16610c8b9092919063ffffffff16565b9050600081511115610c865780806020019051810190610c469190611690565b610c85576040517f08c379a0000000000000000000000000000000000000000000000000000000008152600401610c7c9061172f565b60405180910390fd5b5b505050565b6060610c9a8484600085610ca3565b90509392505050565b606082471015610ce8576040517f08c379a0000000000000000000000000000000000000000000000000000000008152600401610cdf906117c1565b60405180910390fd5b6000808673ffffffffffffffffffffffffffffffffffffffff168587604051610d11919061185b565b60006040518083038185875af1925050503d8060008114610d4e576040519150601f19603f3d011682016040523d82523d6000602084013e610d53565b606091505b5091509150610d6487838387610d70565b92505050949350505050565b60608315610dd2576000835103610dca57610d8a85610de5565b610dc9576040517f08c379a0000000000000000000000000000000000000000000000000000000008152600401610dc0906118be565b60405180910390fd5b5b829050610ddd565b610ddc8383610e08565b5b949350505050565b6000808273ffffffffffffffffffffffffffffffffffffffff163b119050919050565b600082511115610e1b5781518083602001fd5b806040517f08c379a0000000000000000000000000000000000000000000000000000000008152600401610e4f9190611933565b60405180910390fd5b600080fd5b6000819050919050565b610e7081610e5d565b8114610e7b57600080fd5b50565b600081359050610e8d81610e67565b92915050565b6000819050919050565b610ea681610e93565b8114610eb157600080fd5b50565b600081359050610ec381610e9d565b92915050565b600080600060608486031215610ee257610ee1610e58565b5b6000610ef086828701610e7e565b9350506020610f0186828701610eb4565b9250506040610f1286828701610eb4565b9150509250925092565b610f2581610e93565b82525050565b600073ffffffffffffffffffffffffffffffffffffffff82169050919050565b6000610f5682610f2b565b9050919050565b610f6681610f4b565b82525050565b60008115159050919050565b610f8181610f6c565b82525050565b600060a082019050610f9c6000830188610f1c565b610fa96020830187610f5d565b610fb66040830186610f78565b610fc36060830185610f1c565b610fd06080830184610f1c565b9695505050505050565b610fe381610f4b565b8114610fee57600080fd5b50565b60008135905061100081610fda565b92915050565b6000806040838503121561101d5761101c610e58565b5b600061102b85828601610ff1565b925050602061103c85828601610e7e565b9150509250929050565b600060208201905061105b6000830184610f1c565b92915050565b60006020828403121561107757611076610e58565b5b600061108584828501610e7e565b91505092915050565b61109781610e5d565b82525050565b60006040820190506110b2600083018561108e565b6110bf6020830184610f5d565b9392505050565b60006020820190506110db6000830184610f5d565b92915050565b600080604083850312156110f8576110f7610e58565b5b600061110685828601610e7e565b925050602061111785828601610ff1565b9150509250929050565b60006020828403121561113757611136610e58565b5b600061114584828501610eb4565b91505092915050565b6000602082019050611163600083018461108e565b92915050565b600080604083850312156111805761117f610e58565b5b600061118e85828601610eb4565b925050602061119f85828601610e7e565b9150509250929050565b600281106111b657600080fd5b50565b6000813590506111c8816111a9565b92915050565b600080604083850312156111e5576111e4610e58565b5b60006111f385828601610e7e565b9250506020611204858286016111b9565b9150509250929050565b600081519050919050565b600082825260208201905092915050565b6000819050602082019050919050565b61124381610e93565b82525050565b61125281610f4b565b82525050565b61126181610f6c565b82525050565b60a08201600082015161127d600085018261123a565b5060208201516112906020850182611249565b5060408201516112a36040850182611258565b5060608201516112b6606085018261123a565b5060808201516112c9608085018261123a565b50505050565b60006112db8383611267565b60a08301905092915050565b6000602082019050919050565b60006112ff8261120e565b6113098185611219565b93506113148361122a565b8060005b8381101561134557815161132c88826112cf565b9750611337836112e7565b925050600181019050611318565b5085935050505092915050565b6000602082019050818103600083015261136c81846112f4565b905092915050565b60006020828403121561138a57611389610e58565b5b600061139884828501610ff1565b91505092915050565b600082825260208201905092915050565b7f496e73756666696369656e742042616c616e6365000000000000000000000000600082015250565b60006113e86014836113a1565b91506113f3826113b2565b602082019050919050565b60006020820190508181036000830152611417816113db565b9050919050565b7f4e487b7100000000000000000000000000000000000000000000000000000000600052602160045260246000fd5b7f4f776e61626c653a206e6577206f776e657220697320746865207a65726f206160008201527f6464726573730000000000000000000000000000000000000000000000000000602082015250565b60006114a96026836113a1565b91506114b48261144d565b604082019050919050565b600060208201905081810360008301526114d88161149c565b9050919050565b7f4f776e61626c653a2063616c6c6572206973206e6f7420746865206f776e6572600082015250565b60006115156020836113a1565b9150611520826114df565b602082019050919050565b6000602082019050818103600083015261154481611508565b9050919050565b7f4e487b7100000000000000000000000000000000000000000000000000000000600052601160045260246000fd5b600061158582610e93565b915061159083610e93565b9250828210156115a3576115a261154b565b5b828203905092915050565b60006040820190506115c36000830185610f5d565b6115d06020830184610f1c565b9392505050565b60006060820190506115ec6000830186610f5d565b6115f96020830185610f5d565b6116066040830184610f1c565b949350505050565b600061161982610e93565b915061162483610e93565b9250827fffffffffffffffffffffffffffffffffffffffffffffffffffffffffffffffff038211156116595761165861154b565b5b828201905092915050565b61166d81610f6c565b811461167857600080fd5b50565b60008151905061168a81611664565b92915050565b6000602082840312156116a6576116a5610e58565b5b60006116b48482850161167b565b91505092915050565b7f5361666545524332303a204552433230206f7065726174696f6e20646964206e60008201527f6f74207375636365656400000000000000000000000000000000000000000000602082015250565b6000611719602a836113a1565b9150611724826116bd565b604082019050919050565b600060208201905081810360008301526117488161170c565b9050919050565b7f416464726573733a20696e73756666696369656e742062616c616e636520666f60008201527f722063616c6c0000000000000000000000000000000000000000000000000000602082015250565b60006117ab6026836113a1565b91506117b68261174f565b604082019050919050565b600060208201905081810360008301526117da8161179e565b9050919050565b600081519050919050565b600081905092915050565b60005b838110156118155780820151818401526020810190506117fa565b83811115611824576000848401525b50505050565b6000611835826117e1565b61183f81856117ec565b935061184f8185602086016117f7565b80840191505092915050565b6000611867828461182a565b915081905092915050565b7f416464726573733a2063616c6c20746f206e6f6e2d636f6e7472616374000000600082015250565b60006118a8601d836113a1565b91506118b382611872565b602082019050919050565b600060208201905081810360008301526118d78161189b565b9050919050565b600081519050919050565b6000601f19601f8301169050919050565b6000611905826118de565b61190f81856113a1565b935061191f8185602086016117f7565b611928816118e9565b840191505092915050565b6000602082019050818103600083015261194d81846118fa565b90509291505056fea2646970667358221220090addeb84f04a0872238c0eed7e6e1bc339c0d78ea5db189635ee901df8c7c964736f6c634300080f0033",
  "immutableReferences": {},
  "source": "// SPDX-License-Identifier: MIT\r\npragma solidity >=0.6.0 <0.8.18;\r\npragma experimental ABIEncoderV2;\r\nimport \"./Wallet.sol\";\r\n\r\n\r\nenum Side{\r\n    Buy,\r\n    Sell\r\n}\r\n\r\n\r\ncontract Dex is Wallet{\r\n\r\n    struct Order{\r\n        uint id;\r\n        address trader;\r\n        bool buyOrder;\r\n        uint amount;\r\n        uint price;\r\n    }\r\n    \r\n    mapping(bytes32 => mapping(uint => Order[])) public orderBook;\r\n\r\n\r\n    function getOrderBook(bytes32 ticker, Side side) public view returns(Order[] memory){\r\n        return orderBook[ticker][uint(side)];\r\n    }\r\n\r\n    \r\n    \r\n\r\n\r\n}",
  "sourcePath": "C:\\Users\\kaz\\OneDrive - #AskBlockchain\\contracts\\DEX\\contracts\\Dex.sol",
  "compiler": {
    "name": "solc",
    "version": "0.8.15+commit.e14f2714.Emscripten.clang"
  },
  "schemaVersion": "3.4.8",
  "updatedAt": "2023-01-03T17:27:44.236Z",
  "devdoc": {
    "kind": "dev",
    "methods": {
      "owner()": {
        "details": "Returns the address of the current owner."
      },
      "renounceOwnership()": {
        "details": "Leaves the contract without owner. It will not be possible to call `onlyOwner` functions anymore. Can only be called by the current owner. NOTE: Renouncing ownership will leave the contract without an owner, thereby removing any functionality that is only available to the owner."
      },
      "transferOwnership(address)": {
        "details": "Transfers ownership of the contract to a new account (`newOwner`). Can only be called by the current owner."
      }
    },
    "version": 1
  },
  "userdoc": {
    "kind": "user",
    "methods": {},
    "version": 1
  }
}