{
  "contractName": "Wallet",
  "abi": [
    {
      "anonymous": false,
      "inputs": [
        {
          "indexed": true,
          "internalType": "address",
          "name": "previousOwner",
          "type": "address"
        },
        {
          "indexed": true,
          "internalType": "address",
          "name": "newOwner",
          "type": "address"
        }
      ],
      "name": "OwnershipTransferred",
      "type": "event"
    },
    {
      "inputs": [
        {
          "internalType": "address",
          "name": "",
          "type": "address"
        },
        {
          "internalType": "bytes32",
          "name": "",
          "type": "bytes32"
        }
      ],
      "name": "balances",
      "outputs": [
        {
          "internalType": "uint256",
          "name": "",
          "type": "uint256"
        }
      ],
      "stateMutability": "view",
      "type": "function",
      "constant": true
    },
    {
      "inputs": [],
      "name": "owner",
      "outputs": [
        {
          "internalType": "address",
          "name": "",
          "type": "address"
        }
      ],
      "stateMutability": "view",
      "type": "function",
      "constant": true
    },
    {
      "inputs": [],
      "name": "renounceOwnership",
      "outputs": [],
      "stateMutability": "nonpayable",
      "type": "function"
    },
    {
      "inputs": [
        {
          "internalType": "uint256",
          "name": "",
          "type": "uint256"
        }
      ],
      "name": "tokenList",
      "outputs": [
        {
          "internalType": "bytes32",
          "name": "",
          "type": "bytes32"
        }
      ],
      "stateMutability": "view",
      "type": "function",
      "constant": true
    },
    {
      "inputs": [
        {
          "internalType": "bytes32",
          "name": "",
          "type": "bytes32"
        }
      ],
      "name": "tokenMapping",
      "outputs": [
        {
          "internalType": "bytes32",
          "name": "ticker",
          "type": "bytes32"
        },
        {
          "internalType": "address",
          "name": "tokenAddress",
          "type": "address"
        }
      ],
      "stateMutability": "view",
      "type": "function",
      "constant": true
    },
    {
      "inputs": [
        {
          "internalType": "address",
          "name": "newOwner",
          "type": "address"
        }
      ],
      "name": "transferOwnership",
      "outputs": [],
      "stateMutability": "nonpayable",
      "type": "function"
    },
    {
      "inputs": [
        {
          "internalType": "bytes32",
          "name": "ticker",
          "type": "bytes32"
        },
        {
          "internalType": "address",
          "name": "tokenAddress",
          "type": "address"
        }
      ],
      "name": "addToken",
      "outputs": [],
      "stateMutability": "nonpayable",
      "type": "function"
    },
    {
      "inputs": [
        {
          "internalType": "uint256",
          "name": "amount",
          "type": "uint256"
        },
        {
          "internalType": "bytes32",
          "name": "ticker",
          "type": "bytes32"
        }
      ],
      "name": "deposit",
      "outputs": [],
      "stateMutability": "nonpayable",
      "type": "function"
    },
    {
      "inputs": [],
      "name": "depositEth",
      "outputs": [],
      "stateMutability": "payable",
      "type": "function",
      "payable": true
    },
    {
      "inputs": [
        {
          "internalType": "uint256",
          "name": "amount",
          "type": "uint256"
        },
        {
          "internalType": "bytes32",
          "name": "ticker",
          "type": "bytes32"
        }
      ],
      "name": "withdraw",
      "outputs": [],
      "stateMutability": "nonpayable",
      "type": "function"
    }
  ],
  "bytecode": "0x608060405234801561001057600080fd5b5061002d61002261003260201b60201c565b61003a60201b60201c565b6100fe565b600033905090565b60008060009054906101000a900473ffffffffffffffffffffffffffffffffffffffff169050816000806101000a81548173ffffffffffffffffffffffffffffffffffffffff021916908373ffffffffffffffffffffffffffffffffffffffff1602179055508173ffffffffffffffffffffffffffffffffffffffff168173ffffffffffffffffffffffffffffffffffffffff167f8be0079c531659141344cd1fd0a4f28419497f9722a3daafe3b4186f6b6457e060405160405180910390a35050565b6115fb8061010d6000396000f3fe6080604052600436106100915760003560e01c80639776aacf116100595780639776aacf1461015d5780639ead722214610186578063a8d2021a146101c3578063c9630cb0146101ec578063f2fde38b1461021557610091565b80631f14df6914610096578063439370b1146100d3578063667cb4ba146100dd578063715018a61461011b5780638da5cb5b14610132575b600080fd5b3480156100a257600080fd5b506100bd60048036038101906100b89190610e3b565b61023e565b6040516100ca9190610e94565b60405180910390f35b6100db610263565b005b3480156100e957600080fd5b5061010460048036038101906100ff9190610eaf565b61035c565b604051610112929190610efa565b60405180910390f35b34801561012757600080fd5b506101306103a0565b005b34801561013e57600080fd5b506101476103b4565b6040516101549190610f23565b60405180910390f35b34801561016957600080fd5b50610184600480360381019061017f9190610f3e565b6103dd565b005b34801561019257600080fd5b506101ad60048036038101906101a89190610faa565b6104a4565b6040516101ba9190610fd7565b60405180910390f35b3480156101cf57600080fd5b506101ea60048036038101906101e59190610ff2565b6104c8565b005b3480156101f857600080fd5b50610213600480360381019061020e9190610ff2565b610677565b005b34801561022157600080fd5b5061023c60048036038101906102379190611032565b610806565b005b6003602052816000526040600020602052806000526040600020600091509150505481565b6102e634600360003373ffffffffffffffffffffffffffffffffffffffff1673ffffffffffffffffffffffffffffffffffffffff16815260200190815260200160002060007f455448000000000000000000000000000000000000000000000000000000000081526020019081526020016000205461088990919063ffffffff16565b600360003373ffffffffffffffffffffffffffffffffffffffff1673ffffffffffffffffffffffffffffffffffffffff16815260200190815260200160002060007f4554480000000000000000000000000000000000000000000000000000000000815260200190815260200160002081905550565b60016020528060005260406000206000915090508060000154908060010160009054906101000a900473ffffffffffffffffffffffffffffffffffffffff16905082565b6103a861089f565b6103b2600061091d565b565b60008060009054906101000a900473ffffffffffffffffffffffffffffffffffffffff16905090565b6103e561089f565b60405180604001604052808381526020018273ffffffffffffffffffffffffffffffffffffffff16815250600160008481526020019081526020016000206000820151816000015560208201518160010160006101000a81548173ffffffffffffffffffffffffffffffffffffffff021916908373ffffffffffffffffffffffffffffffffffffffff16021790555090505060028290806001815401808255809150506001900390600052602060002001600090919091909150555050565b600281815481106104b457600080fd5b906000526020600020016000915090505481565b81600360003373ffffffffffffffffffffffffffffffffffffffff1673ffffffffffffffffffffffffffffffffffffffff168152602001908152602001600020600083815260200190815260200160002054101561055b576040517f08c379a0000000000000000000000000000000000000000000000000000000008152600401610552906110bc565b60405180910390fd5b6105be82600360003373ffffffffffffffffffffffffffffffffffffffff1673ffffffffffffffffffffffffffffffffffffffff1681526020019081526020016000206000848152602001908152602001600020546109e190919063ffffffff16565b600360003373ffffffffffffffffffffffffffffffffffffffff1673ffffffffffffffffffffffffffffffffffffffff16815260200190815260200160002060008381526020019081526020016000208190555061067333836001600085815260200190815260200160002060010160009054906101000a900473ffffffffffffffffffffffffffffffffffffffff1673ffffffffffffffffffffffffffffffffffffffff166109f79092919063ffffffff16565b5050565b80600073ffffffffffffffffffffffffffffffffffffffff166001600083815260200190815260200160002060010160009054906101000a900473ffffffffffffffffffffffffffffffffffffffff1673ffffffffffffffffffffffffffffffffffffffff16036106e757600080fd5b61074a3330856001600087815260200190815260200160002060010160009054906101000a900473ffffffffffffffffffffffffffffffffffffffff1673ffffffffffffffffffffffffffffffffffffffff16610a7d909392919063ffffffff16565b6107ad83600360003373ffffffffffffffffffffffffffffffffffffffff1673ffffffffffffffffffffffffffffffffffffffff16815260200190815260200160002060008581526020019081526020016000205461088990919063ffffffff16565b600360003373ffffffffffffffffffffffffffffffffffffffff1673ffffffffffffffffffffffffffffffffffffffff168152602001908152602001600020600084815260200190815260200160002081905550505050565b61080e61089f565b600073ffffffffffffffffffffffffffffffffffffffff168173ffffffffffffffffffffffffffffffffffffffff160361087d576040517f08c379a00000000000000000000000000000000000000000000000000000000081526004016108749061114e565b60405180910390fd5b6108868161091d565b50565b60008183610897919061119d565b905092915050565b6108a7610b06565b73ffffffffffffffffffffffffffffffffffffffff166108c56103b4565b73ffffffffffffffffffffffffffffffffffffffff161461091b576040517f08c379a00000000000000000000000000000000000000000000000000000000081526004016109129061121d565b60405180910390fd5b565b60008060009054906101000a900473ffffffffffffffffffffffffffffffffffffffff169050816000806101000a81548173ffffffffffffffffffffffffffffffffffffffff021916908373ffffffffffffffffffffffffffffffffffffffff1602179055508173ffffffffffffffffffffffffffffffffffffffff168173ffffffffffffffffffffffffffffffffffffffff167f8be0079c531659141344cd1fd0a4f28419497f9722a3daafe3b4186f6b6457e060405160405180910390a35050565b600081836109ef919061123d565b905092915050565b610a788363a9059cbb60e01b8484604051602401610a16929190611271565b604051602081830303815290604052907bffffffffffffffffffffffffffffffffffffffffffffffffffffffff19166020820180517bffffffffffffffffffffffffffffffffffffffffffffffffffffffff8381831617835250505050610b0e565b505050565b610b00846323b872dd60e01b858585604051602401610a9e9392919061129a565b604051602081830303815290604052907bffffffffffffffffffffffffffffffffffffffffffffffffffffffff19166020820180517bffffffffffffffffffffffffffffffffffffffffffffffffffffffff8381831617835250505050610b0e565b50505050565b600033905090565b6000610b70826040518060400160405280602081526020017f5361666545524332303a206c6f772d6c6576656c2063616c6c206661696c65648152508573ffffffffffffffffffffffffffffffffffffffff16610bd59092919063ffffffff16565b9050600081511115610bd05780806020019051810190610b909190611309565b610bcf576040517f08c379a0000000000000000000000000000000000000000000000000000000008152600401610bc6906113a8565b60405180910390fd5b5b505050565b6060610be48484600085610bed565b90509392505050565b606082471015610c32576040517f08c379a0000000000000000000000000000000000000000000000000000000008152600401610c299061143a565b60405180910390fd5b6000808673ffffffffffffffffffffffffffffffffffffffff168587604051610c5b91906114cb565b60006040518083038185875af1925050503d8060008114610c98576040519150601f19603f3d011682016040523d82523d6000602084013e610c9d565b606091505b5091509150610cae87838387610cba565b92505050949350505050565b60608315610d1c576000835103610d1457610cd485610d2f565b610d13576040517f08c379a0000000000000000000000000000000000000000000000000000000008152600401610d0a9061152e565b60405180910390fd5b5b829050610d27565b610d268383610d52565b5b949350505050565b6000808273ffffffffffffffffffffffffffffffffffffffff163b119050919050565b600082511115610d655781518083602001fd5b806040517f08c379a0000000000000000000000000000000000000000000000000000000008152600401610d9991906115a3565b60405180910390fd5b600080fd5b600073ffffffffffffffffffffffffffffffffffffffff82169050919050565b6000610dd282610da7565b9050919050565b610de281610dc7565b8114610ded57600080fd5b50565b600081359050610dff81610dd9565b92915050565b6000819050919050565b610e1881610e05565b8114610e2357600080fd5b50565b600081359050610e3581610e0f565b92915050565b60008060408385031215610e5257610e51610da2565b5b6000610e6085828601610df0565b9250506020610e7185828601610e26565b9150509250929050565b6000819050919050565b610e8e81610e7b565b82525050565b6000602082019050610ea96000830184610e85565b92915050565b600060208284031215610ec557610ec4610da2565b5b6000610ed384828501610e26565b91505092915050565b610ee581610e05565b82525050565b610ef481610dc7565b82525050565b6000604082019050610f0f6000830185610edc565b610f1c6020830184610eeb565b9392505050565b6000602082019050610f386000830184610eeb565b92915050565b60008060408385031215610f5557610f54610da2565b5b6000610f6385828601610e26565b9250506020610f7485828601610df0565b9150509250929050565b610f8781610e7b565b8114610f9257600080fd5b50565b600081359050610fa481610f7e565b92915050565b600060208284031215610fc057610fbf610da2565b5b6000610fce84828501610f95565b91505092915050565b6000602082019050610fec6000830184610edc565b92915050565b6000806040838503121561100957611008610da2565b5b600061101785828601610f95565b925050602061102885828601610e26565b9150509250929050565b60006020828403121561104857611047610da2565b5b600061105684828501610df0565b91505092915050565b600082825260208201905092915050565b7f496e73756666696369656e742042616c616e6365000000000000000000000000600082015250565b60006110a660148361105f565b91506110b182611070565b602082019050919050565b600060208201905081810360008301526110d581611099565b9050919050565b7f4f776e61626c653a206e6577206f776e657220697320746865207a65726f206160008201527f6464726573730000000000000000000000000000000000000000000000000000602082015250565b600061113860268361105f565b9150611143826110dc565b604082019050919050565b600060208201905081810360008301526111678161112b565b9050919050565b7f4e487b7100000000000000000000000000000000000000000000000000000000600052601160045260246000fd5b60006111a882610e7b565b91506111b383610e7b565b92508282019050808211156111cb576111ca61116e565b5b92915050565b7f4f776e61626c653a2063616c6c6572206973206e6f7420746865206f776e6572600082015250565b600061120760208361105f565b9150611212826111d1565b602082019050919050565b60006020820190508181036000830152611236816111fa565b9050919050565b600061124882610e7b565b915061125383610e7b565b925082820390508181111561126b5761126a61116e565b5b92915050565b60006040820190506112866000830185610eeb565b6112936020830184610e85565b9392505050565b60006060820190506112af6000830186610eeb565b6112bc6020830185610eeb565b6112c96040830184610e85565b949350505050565b60008115159050919050565b6112e6816112d1565b81146112f157600080fd5b50565b600081519050611303816112dd565b92915050565b60006020828403121561131f5761131e610da2565b5b600061132d848285016112f4565b91505092915050565b7f5361666545524332303a204552433230206f7065726174696f6e20646964206e60008201527f6f74207375636365656400000000000000000000000000000000000000000000602082015250565b6000611392602a8361105f565b915061139d82611336565b604082019050919050565b600060208201905081810360008301526113c181611385565b9050919050565b7f416464726573733a20696e73756666696369656e742062616c616e636520666f60008201527f722063616c6c0000000000000000000000000000000000000000000000000000602082015250565b600061142460268361105f565b915061142f826113c8565b604082019050919050565b6000602082019050818103600083015261145381611417565b9050919050565b600081519050919050565b600081905092915050565b60005b8381101561148e578082015181840152602081019050611473565b60008484015250505050565b60006114a58261145a565b6114af8185611465565b93506114bf818560208601611470565b80840191505092915050565b60006114d7828461149a565b915081905092915050565b7f416464726573733a2063616c6c20746f206e6f6e2d636f6e7472616374000000600082015250565b6000611518601d8361105f565b9150611523826114e2565b602082019050919050565b600060208201905081810360008301526115478161150b565b9050919050565b600081519050919050565b6000601f19601f8301169050919050565b60006115758261154e565b61157f818561105f565b935061158f818560208601611470565b61159881611559565b840191505092915050565b600060208201905081810360008301526115bd818461156a565b90509291505056fea26469706673582212201e86246db3344b5302c25aa652fe2fe90529151f0db2c7e70e2713e544ce5f3064736f6c63430008120033",
  "immutableReferences": {},
  "source": "// SPDX-License-Identifier: MIT\r\n// OpenZeppelin Contracts (last updated v4.5.0) (token/ERC20/utils/TokenTimelock.sol)\r\n\r\npragma solidity ^0.8.0;\r\n\r\nimport \"../node_modules/@openzeppelin/contracts/token/ERC20/IERC20.sol\";\r\nimport \"../node_modules/@openzeppelin/contracts/utils/math/SafeMath.sol\";\r\nimport \"../node_modules/@openzeppelin/contracts/token/ERC20/utils/SafeERC20.sol\";\r\nimport \"../node_modules/@openzeppelin/contracts/access/Ownable.sol\";\r\n\r\ncontract Wallet is Ownable{\r\n\r\n    using SafeMath for uint256;\r\n    using SafeERC20 for IERC20;\r\n\r\n    modifier tokenExist(bytes32 ticker){\r\n        require(tokenMapping[ticker].tokenAddress != address(0));\r\n        _;\r\n    }\r\n    \r\n\r\n    struct Token{\r\n        bytes32 ticker;\r\n        address tokenAddress;\r\n    }\r\n\r\n    mapping(bytes32 => Token) public tokenMapping;\r\n    bytes32[] public tokenList;\r\n    mapping(address => mapping(bytes32 => uint256)) public balances;\r\n\r\n\r\n\r\n    \r\n    function addToken(bytes32 ticker, address tokenAddress) external onlyOwner {\r\n        tokenMapping[ticker] = Token(ticker, tokenAddress);\r\n        tokenList.push(ticker);\r\n    }\r\n\r\n    function deposit(uint amount, bytes32 ticker) external tokenExist(ticker) {\r\n        // Require that the depositing address has sufficient balance.\r\n        IERC20(tokenMapping[ticker].tokenAddress).safeTransferFrom(msg.sender, address(this), amount); \r\n        balances[msg.sender][ticker] = balances[msg.sender][ticker].add(amount);        \r\n    }\r\n\r\n    function depositEth() payable external {\r\n        balances[msg.sender][bytes32(\"ETH\")] = balances[msg.sender][bytes32(\"ETH\")].add(msg.value);\r\n    }\r\n\r\n     function withdraw(uint amount, bytes32 ticker) external {\r\n        \r\n        require(balances[msg.sender][ticker] >= amount, \"Insufficient Balance\");\r\n\r\n        balances[msg.sender][ticker] = balances[msg.sender][ticker].sub(amount);\r\n        IERC20(tokenMapping[ticker].tokenAddress).safeTransfer(msg.sender, amount);\r\n    }\r\n\r\n    \r\n}",
  "sourcePath": "C:\\Users\\kaz\\OneDrive - #AskBlockchain\\contracts\\DEX\\contracts\\Wallet.sol",
  "compiler": {
    "name": "solc",
    "version": "0.8.18+commit.87f61d96.Emscripten.clang"
  },
  "schemaVersion": "3.4.8",
  "updatedAt": "2023-02-06T11:35:45.967Z",
  "networkType": "ethereum",
  "devdoc": {
    "kind": "dev",
    "methods": {
      "owner()": {
        "details": "Returns the address of the current owner."
      },
      "renounceOwnership()": {
        "details": "Leaves the contract without owner. It will not be possible to call `onlyOwner` functions anymore. Can only be called by the current owner. NOTE: Renouncing ownership will leave the contract without an owner, thereby removing any functionality that is only available to the owner."
      },
      "transferOwnership(address)": {
        "details": "Transfers ownership of the contract to a new account (`newOwner`). Can only be called by the current owner."
      }
    },
    "version": 1
  },
  "userdoc": {
    "kind": "user",
    "methods": {},
    "version": 1
  }
}