{
  "contractName": "wallet",
  "abi": [
    {
      "inputs": [
        {
          "internalType": "address",
          "name": "",
          "type": "address"
        },
        {
          "internalType": "bytes32",
          "name": "",
          "type": "bytes32"
        }
      ],
      "name": "balances",
      "outputs": [
        {
          "internalType": "uint256",
          "name": "",
          "type": "uint256"
        }
      ],
      "stateMutability": "view",
      "type": "function"
    },
    {
      "inputs": [
        {
          "internalType": "uint256",
          "name": "",
          "type": "uint256"
        }
      ],
      "name": "tokenList",
      "outputs": [
        {
          "internalType": "bytes32",
          "name": "",
          "type": "bytes32"
        }
      ],
      "stateMutability": "view",
      "type": "function"
    },
    {
      "inputs": [
        {
          "internalType": "bytes32",
          "name": "",
          "type": "bytes32"
        }
      ],
      "name": "tokenMapping",
      "outputs": [
        {
          "internalType": "bytes32",
          "name": "ticker",
          "type": "bytes32"
        },
        {
          "internalType": "address",
          "name": "tokenAddress",
          "type": "address"
        }
      ],
      "stateMutability": "view",
      "type": "function"
    },
    {
      "inputs": [
        {
          "internalType": "bytes32",
          "name": "ticker",
          "type": "bytes32"
        },
        {
          "internalType": "address",
          "name": "tokenAddress",
          "type": "address"
        }
      ],
      "name": "addToken",
      "outputs": [],
      "stateMutability": "nonpayable",
      "type": "function"
    },
    {
      "inputs": [
        {
          "internalType": "uint256",
          "name": "amount",
          "type": "uint256"
        },
        {
          "internalType": "bytes32",
          "name": "ticker",
          "type": "bytes32"
        }
      ],
      "name": "deposit",
      "outputs": [],
      "stateMutability": "payable",
      "type": "function"
    },
    {
      "inputs": [
        {
          "internalType": "uint256",
          "name": "amount",
          "type": "uint256"
        },
        {
          "internalType": "bytes32",
          "name": "ticker",
          "type": "bytes32"
        }
      ],
      "name": "withdraw",
      "outputs": [],
      "stateMutability": "nonpayable",
      "type": "function"
    }
  ],
  "bytecode": "0x608060405234801561001057600080fd5b50610a3e806100206000396000f3fe6080604052600436106100555760003560e01c80631f14df691461005a578063667cb4ba146100975780639776aacf146100d55780639ead7222146100fe578063a8d2021a1461013b578063c9630cb014610164575b600080fd5b34801561006657600080fd5b50610081600480360381019061007c9190610668565b610180565b60405161008e91906106c1565b60405180910390f35b3480156100a357600080fd5b506100be60048036038101906100b991906106dc565b6101a5565b6040516100cc929190610727565b60405180910390f35b3480156100e157600080fd5b506100fc60048036038101906100f79190610750565b6101e9565b005b34801561010a57600080fd5b50610125600480360381019061012091906107bc565b6102a7565b60405161013291906107e9565b60405180910390f35b34801561014757600080fd5b50610162600480360381019061015d9190610804565b6102cb565b005b61017e60048036038101906101799190610804565b61053b565b005b6002602052816000526040600020602052806000526040600020600091509150505481565b60006020528060005260406000206000915090508060000154908060010160009054906101000a900473ffffffffffffffffffffffffffffffffffffffff16905082565b60405180604001604052808381526020018273ffffffffffffffffffffffffffffffffffffffff168152506000808481526020019081526020016000206000820151816000015560208201518160010160006101000a81548173ffffffffffffffffffffffffffffffffffffffff021916908373ffffffffffffffffffffffffffffffffffffffff16021790555090505060018290806001815401808255809150506001900390600052602060002001600090919091909150555050565b600181815481106102b757600080fd5b906000526020600020016000915090505481565b600073ffffffffffffffffffffffffffffffffffffffff1660008083815260200190815260200160002060010160009054906101000a900473ffffffffffffffffffffffffffffffffffffffff1673ffffffffffffffffffffffffffffffffffffffff160361033957600080fd5b81600260003373ffffffffffffffffffffffffffffffffffffffff1673ffffffffffffffffffffffffffffffffffffffff16815260200190815260200160002060008381526020019081526020016000205410156103cc576040517f08c379a00000000000000000000000000000000000000000000000000000000081526004016103c3906108a1565b60405180910390fd5b61042f82600260003373ffffffffffffffffffffffffffffffffffffffff1673ffffffffffffffffffffffffffffffffffffffff1681526020019081526020016000206000848152602001908152602001600020546105a390919063ffffffff16565b600260003373ffffffffffffffffffffffffffffffffffffffff1673ffffffffffffffffffffffffffffffffffffffff16815260200190815260200160002060008381526020019081526020016000208190555060008082815260200190815260200160002060010160009054906101000a900473ffffffffffffffffffffffffffffffffffffffff1673ffffffffffffffffffffffffffffffffffffffff1663a9059cbb33846040518363ffffffff1660e01b81526004016104f39291906108c1565b6020604051808303816000875af1158015610512573d6000803e3d6000fd5b505050506040513d601f19601f820116820180604052508101906105369190610922565b505050565b61059e82600260003373ffffffffffffffffffffffffffffffffffffffff1673ffffffffffffffffffffffffffffffffffffffff1681526020019081526020016000206000848152602001908152602001600020546105b990919063ffffffff16565b505050565b600081836105b1919061097e565b905092915050565b600081836105c791906109b2565b905092915050565b600080fd5b600073ffffffffffffffffffffffffffffffffffffffff82169050919050565b60006105ff826105d4565b9050919050565b61060f816105f4565b811461061a57600080fd5b50565b60008135905061062c81610606565b92915050565b6000819050919050565b61064581610632565b811461065057600080fd5b50565b6000813590506106628161063c565b92915050565b6000806040838503121561067f5761067e6105cf565b5b600061068d8582860161061d565b925050602061069e85828601610653565b9150509250929050565b6000819050919050565b6106bb816106a8565b82525050565b60006020820190506106d660008301846106b2565b92915050565b6000602082840312156106f2576106f16105cf565b5b600061070084828501610653565b91505092915050565b61071281610632565b82525050565b610721816105f4565b82525050565b600060408201905061073c6000830185610709565b6107496020830184610718565b9392505050565b60008060408385031215610767576107666105cf565b5b600061077585828601610653565b92505060206107868582860161061d565b9150509250929050565b610799816106a8565b81146107a457600080fd5b50565b6000813590506107b681610790565b92915050565b6000602082840312156107d2576107d16105cf565b5b60006107e0848285016107a7565b91505092915050565b60006020820190506107fe6000830184610709565b92915050565b6000806040838503121561081b5761081a6105cf565b5b6000610829858286016107a7565b925050602061083a85828601610653565b9150509250929050565b600082825260208201905092915050565b7f496e73756666696369656e742042616c616e6365000000000000000000000000600082015250565b600061088b601483610844565b915061089682610855565b602082019050919050565b600060208201905081810360008301526108ba8161087e565b9050919050565b60006040820190506108d66000830185610718565b6108e360208301846106b2565b9392505050565b60008115159050919050565b6108ff816108ea565b811461090a57600080fd5b50565b60008151905061091c816108f6565b92915050565b600060208284031215610938576109376105cf565b5b60006109468482850161090d565b91505092915050565b7f4e487b7100000000000000000000000000000000000000000000000000000000600052601160045260246000fd5b6000610989826106a8565b9150610994836106a8565b9250828210156109a7576109a661094f565b5b828203905092915050565b60006109bd826106a8565b91506109c8836106a8565b9250827fffffffffffffffffffffffffffffffffffffffffffffffffffffffffffffffff038211156109fd576109fc61094f565b5b82820190509291505056fea264697066735822122049bcb1162fb9507fdd45b363222cd8a43d5c1a98c391336770351b04c07eb8e464736f6c634300080f0033",
  "immutableReferences": {},
  "source": "// SPDX-License-Identifier: MIT\r\n// OpenZeppelin Contracts (last updated v4.5.0) (token/ERC20/utils/TokenTimelock.sol)\r\n\r\npragma solidity ^0.8.0;\r\n\r\nimport \"../node_modules/@openzeppelin/contracts/token/ERC20/IERC20.sol\";\r\nimport \"../node_modules/@openzeppelin/contracts/utils/math/SafeMath.sol\";\r\n\r\ncontract wallet {\r\n\r\n    using SafeMath for uint256;\r\n\r\n    struct Token{\r\n        bytes32 ticker;\r\n        address tokenAddress;\r\n    }\r\n\r\n    mapping(bytes32 => Token) public tokenMapping;\r\n    bytes32[] public tokenList;\r\n    mapping(address => mapping(bytes32 => uint256)) public balances;\r\n    \r\n\r\n    function addToken(bytes32 ticker, address tokenAddress) external {\r\n        tokenMapping[ticker] = Token(ticker, tokenAddress);\r\n        tokenList.push(ticker);\r\n    }\r\n\r\n    function deposit(uint amount, bytes32 ticker) payable external {\r\n        balances[msg.sender][ticker].add(amount);\r\n\r\n    }\r\n\r\n     function withdraw(uint amount, bytes32 ticker) external {\r\n        require(tokenMapping[ticker].tokenAddress != address(0));\r\n        require(balances[msg.sender][ticker] >= amount, \"Insufficient Balance\");\r\n\r\n        balances[msg.sender][ticker] = balances[msg.sender][ticker].sub(amount);\r\n        IERC20(tokenMapping[ticker].tokenAddress).transfer(msg.sender, amount);\r\n    }\r\n\r\n    \r\n}",
  "sourcePath": "C:\\Users\\kaz\\OneDrive - #AskBlockchain\\contracts\\DEX\\contracts\\Wallet.sol",
  "compiler": {
    "name": "solc",
    "version": "0.8.15+commit.e14f2714.Emscripten.clang"
  },
  "schemaVersion": "3.4.8",
  "updatedAt": "2022-12-22T18:36:06.797Z",
  "devdoc": {
    "kind": "dev",
    "methods": {},
    "version": 1
  },
  "userdoc": {
    "kind": "user",
    "methods": {},
    "version": 1
  }
}