{
  "contractName": "Wallet",
  "abi": [
    {
      "anonymous": false,
      "inputs": [
        {
          "indexed": true,
          "internalType": "address",
          "name": "previousOwner",
          "type": "address"
        },
        {
          "indexed": true,
          "internalType": "address",
          "name": "newOwner",
          "type": "address"
        }
      ],
      "name": "OwnershipTransferred",
      "type": "event"
    },
    {
      "inputs": [
        {
          "internalType": "address",
          "name": "",
          "type": "address"
        },
        {
          "internalType": "bytes32",
          "name": "",
          "type": "bytes32"
        }
      ],
      "name": "balances",
      "outputs": [
        {
          "internalType": "uint256",
          "name": "",
          "type": "uint256"
        }
      ],
      "stateMutability": "view",
      "type": "function"
    },
    {
      "inputs": [],
      "name": "owner",
      "outputs": [
        {
          "internalType": "address",
          "name": "",
          "type": "address"
        }
      ],
      "stateMutability": "view",
      "type": "function"
    },
    {
      "inputs": [],
      "name": "renounceOwnership",
      "outputs": [],
      "stateMutability": "nonpayable",
      "type": "function"
    },
    {
      "inputs": [
        {
          "internalType": "uint256",
          "name": "",
          "type": "uint256"
        }
      ],
      "name": "tokenList",
      "outputs": [
        {
          "internalType": "bytes32",
          "name": "",
          "type": "bytes32"
        }
      ],
      "stateMutability": "view",
      "type": "function"
    },
    {
      "inputs": [
        {
          "internalType": "bytes32",
          "name": "",
          "type": "bytes32"
        }
      ],
      "name": "tokenMapping",
      "outputs": [
        {
          "internalType": "bytes32",
          "name": "ticker",
          "type": "bytes32"
        },
        {
          "internalType": "address",
          "name": "tokenAddress",
          "type": "address"
        }
      ],
      "stateMutability": "view",
      "type": "function"
    },
    {
      "inputs": [
        {
          "internalType": "address",
          "name": "newOwner",
          "type": "address"
        }
      ],
      "name": "transferOwnership",
      "outputs": [],
      "stateMutability": "nonpayable",
      "type": "function"
    },
    {
      "inputs": [
        {
          "internalType": "bytes32",
          "name": "ticker",
          "type": "bytes32"
        },
        {
          "internalType": "address",
          "name": "tokenAddress",
          "type": "address"
        }
      ],
      "name": "addToken",
      "outputs": [],
      "stateMutability": "nonpayable",
      "type": "function"
    },
    {
      "inputs": [
        {
          "internalType": "uint256",
          "name": "amount",
          "type": "uint256"
        },
        {
          "internalType": "bytes32",
          "name": "ticker",
          "type": "bytes32"
        }
      ],
      "name": "deposit",
      "outputs": [],
      "stateMutability": "nonpayable",
      "type": "function"
    },
    {
      "inputs": [
        {
          "internalType": "uint256",
          "name": "amount",
          "type": "uint256"
        },
        {
          "internalType": "bytes32",
          "name": "ticker",
          "type": "bytes32"
        }
      ],
      "name": "withdraw",
      "outputs": [],
      "stateMutability": "nonpayable",
      "type": "function"
    }
  ],
  "bytecode": "0x608060405234801561001057600080fd5b5061002d61002261003260201b60201c565b61003a60201b60201c565b6100fe565b600033905090565b60008060009054906101000a900473ffffffffffffffffffffffffffffffffffffffff169050816000806101000a81548173ffffffffffffffffffffffffffffffffffffffff021916908373ffffffffffffffffffffffffffffffffffffffff1602179055508173ffffffffffffffffffffffffffffffffffffffff168173ffffffffffffffffffffffffffffffffffffffff167f8be0079c531659141344cd1fd0a4f28419497f9722a3daafe3b4186f6b6457e060405160405180910390a35050565b6114b08061010d6000396000f3fe608060405234801561001057600080fd5b50600436106100935760003560e01c80639776aacf116100665780639776aacf146101215780639ead72221461013d578063a8d2021a1461016d578063c9630cb014610189578063f2fde38b146101a557610093565b80631f14df6914610098578063667cb4ba146100c8578063715018a6146100f95780638da5cb5b14610103575b600080fd5b6100b260048036038101906100ad9190610cc5565b6101c1565b6040516100bf9190610d1e565b60405180910390f35b6100e260048036038101906100dd9190610d39565b6101e6565b6040516100f0929190610d84565b60405180910390f35b61010161022a565b005b61010b61023e565b6040516101189190610dad565b60405180910390f35b61013b60048036038101906101369190610dc8565b610267565b005b61015760048036038101906101529190610e34565b61032e565b6040516101649190610e61565b60405180910390f35b61018760048036038101906101829190610e7c565b610352565b005b6101a3600480360381019061019e9190610e7c565b610501565b005b6101bf60048036038101906101ba9190610ebc565b610690565b005b6003602052816000526040600020602052806000526040600020600091509150505481565b60016020528060005260406000206000915090508060000154908060010160009054906101000a900473ffffffffffffffffffffffffffffffffffffffff16905082565b610232610713565b61023c6000610791565b565b60008060009054906101000a900473ffffffffffffffffffffffffffffffffffffffff16905090565b61026f610713565b60405180604001604052808381526020018273ffffffffffffffffffffffffffffffffffffffff16815250600160008481526020019081526020016000206000820151816000015560208201518160010160006101000a81548173ffffffffffffffffffffffffffffffffffffffff021916908373ffffffffffffffffffffffffffffffffffffffff16021790555090505060028290806001815401808255809150506001900390600052602060002001600090919091909150555050565b6002818154811061033e57600080fd5b906000526020600020016000915090505481565b81600360003373ffffffffffffffffffffffffffffffffffffffff1673ffffffffffffffffffffffffffffffffffffffff16815260200190815260200160002060008381526020019081526020016000205410156103e5576040517f08c379a00000000000000000000000000000000000000000000000000000000081526004016103dc90610f46565b60405180910390fd5b61044882600360003373ffffffffffffffffffffffffffffffffffffffff1673ffffffffffffffffffffffffffffffffffffffff16815260200190815260200160002060008481526020019081526020016000205461085590919063ffffffff16565b600360003373ffffffffffffffffffffffffffffffffffffffff1673ffffffffffffffffffffffffffffffffffffffff1681526020019081526020016000206000838152602001908152602001600020819055506104fd33836001600085815260200190815260200160002060010160009054906101000a900473ffffffffffffffffffffffffffffffffffffffff1673ffffffffffffffffffffffffffffffffffffffff1661086b9092919063ffffffff16565b5050565b80600073ffffffffffffffffffffffffffffffffffffffff166001600083815260200190815260200160002060010160009054906101000a900473ffffffffffffffffffffffffffffffffffffffff1673ffffffffffffffffffffffffffffffffffffffff160361057157600080fd5b6105d43330856001600087815260200190815260200160002060010160009054906101000a900473ffffffffffffffffffffffffffffffffffffffff1673ffffffffffffffffffffffffffffffffffffffff166108f1909392919063ffffffff16565b61063783600360003373ffffffffffffffffffffffffffffffffffffffff1673ffffffffffffffffffffffffffffffffffffffff16815260200190815260200160002060008581526020019081526020016000205461097a90919063ffffffff16565b600360003373ffffffffffffffffffffffffffffffffffffffff1673ffffffffffffffffffffffffffffffffffffffff168152602001908152602001600020600084815260200190815260200160002081905550505050565b610698610713565b600073ffffffffffffffffffffffffffffffffffffffff168173ffffffffffffffffffffffffffffffffffffffff1603610707576040517f08c379a00000000000000000000000000000000000000000000000000000000081526004016106fe90610fd8565b60405180910390fd5b61071081610791565b50565b61071b610990565b73ffffffffffffffffffffffffffffffffffffffff1661073961023e565b73ffffffffffffffffffffffffffffffffffffffff161461078f576040517f08c379a000000000000000000000000000000000000000000000000000000000815260040161078690611044565b60405180910390fd5b565b60008060009054906101000a900473ffffffffffffffffffffffffffffffffffffffff169050816000806101000a81548173ffffffffffffffffffffffffffffffffffffffff021916908373ffffffffffffffffffffffffffffffffffffffff1602179055508173ffffffffffffffffffffffffffffffffffffffff168173ffffffffffffffffffffffffffffffffffffffff167f8be0079c531659141344cd1fd0a4f28419497f9722a3daafe3b4186f6b6457e060405160405180910390a35050565b600081836108639190611093565b905092915050565b6108ec8363a9059cbb60e01b848460405160240161088a9291906110c7565b604051602081830303815290604052907bffffffffffffffffffffffffffffffffffffffffffffffffffffffff19166020820180517bffffffffffffffffffffffffffffffffffffffffffffffffffffffff8381831617835250505050610998565b505050565b610974846323b872dd60e01b858585604051602401610912939291906110f0565b604051602081830303815290604052907bffffffffffffffffffffffffffffffffffffffffffffffffffffffff19166020820180517bffffffffffffffffffffffffffffffffffffffffffffffffffffffff8381831617835250505050610998565b50505050565b600081836109889190611127565b905092915050565b600033905090565b60006109fa826040518060400160405280602081526020017f5361666545524332303a206c6f772d6c6576656c2063616c6c206661696c65648152508573ffffffffffffffffffffffffffffffffffffffff16610a5f9092919063ffffffff16565b9050600081511115610a5a5780806020019051810190610a1a91906111b5565b610a59576040517f08c379a0000000000000000000000000000000000000000000000000000000008152600401610a5090611254565b60405180910390fd5b5b505050565b6060610a6e8484600085610a77565b90509392505050565b606082471015610abc576040517f08c379a0000000000000000000000000000000000000000000000000000000008152600401610ab3906112e6565b60405180910390fd5b6000808673ffffffffffffffffffffffffffffffffffffffff168587604051610ae59190611380565b60006040518083038185875af1925050503d8060008114610b22576040519150601f19603f3d011682016040523d82523d6000602084013e610b27565b606091505b5091509150610b3887838387610b44565b92505050949350505050565b60608315610ba6576000835103610b9e57610b5e85610bb9565b610b9d576040517f08c379a0000000000000000000000000000000000000000000000000000000008152600401610b94906113e3565b60405180910390fd5b5b829050610bb1565b610bb08383610bdc565b5b949350505050565b6000808273ffffffffffffffffffffffffffffffffffffffff163b119050919050565b600082511115610bef5781518083602001fd5b806040517f08c379a0000000000000000000000000000000000000000000000000000000008152600401610c239190611458565b60405180910390fd5b600080fd5b600073ffffffffffffffffffffffffffffffffffffffff82169050919050565b6000610c5c82610c31565b9050919050565b610c6c81610c51565b8114610c7757600080fd5b50565b600081359050610c8981610c63565b92915050565b6000819050919050565b610ca281610c8f565b8114610cad57600080fd5b50565b600081359050610cbf81610c99565b92915050565b60008060408385031215610cdc57610cdb610c2c565b5b6000610cea85828601610c7a565b9250506020610cfb85828601610cb0565b9150509250929050565b6000819050919050565b610d1881610d05565b82525050565b6000602082019050610d336000830184610d0f565b92915050565b600060208284031215610d4f57610d4e610c2c565b5b6000610d5d84828501610cb0565b91505092915050565b610d6f81610c8f565b82525050565b610d7e81610c51565b82525050565b6000604082019050610d996000830185610d66565b610da66020830184610d75565b9392505050565b6000602082019050610dc26000830184610d75565b92915050565b60008060408385031215610ddf57610dde610c2c565b5b6000610ded85828601610cb0565b9250506020610dfe85828601610c7a565b9150509250929050565b610e1181610d05565b8114610e1c57600080fd5b50565b600081359050610e2e81610e08565b92915050565b600060208284031215610e4a57610e49610c2c565b5b6000610e5884828501610e1f565b91505092915050565b6000602082019050610e766000830184610d66565b92915050565b60008060408385031215610e9357610e92610c2c565b5b6000610ea185828601610e1f565b9250506020610eb285828601610cb0565b9150509250929050565b600060208284031215610ed257610ed1610c2c565b5b6000610ee084828501610c7a565b91505092915050565b600082825260208201905092915050565b7f496e73756666696369656e742042616c616e6365000000000000000000000000600082015250565b6000610f30601483610ee9565b9150610f3b82610efa565b602082019050919050565b60006020820190508181036000830152610f5f81610f23565b9050919050565b7f4f776e61626c653a206e6577206f776e657220697320746865207a65726f206160008201527f6464726573730000000000000000000000000000000000000000000000000000602082015250565b6000610fc2602683610ee9565b9150610fcd82610f66565b604082019050919050565b60006020820190508181036000830152610ff181610fb5565b9050919050565b7f4f776e61626c653a2063616c6c6572206973206e6f7420746865206f776e6572600082015250565b600061102e602083610ee9565b915061103982610ff8565b602082019050919050565b6000602082019050818103600083015261105d81611021565b9050919050565b7f4e487b7100000000000000000000000000000000000000000000000000000000600052601160045260246000fd5b600061109e82610d05565b91506110a983610d05565b9250828210156110bc576110bb611064565b5b828203905092915050565b60006040820190506110dc6000830185610d75565b6110e96020830184610d0f565b9392505050565b60006060820190506111056000830186610d75565b6111126020830185610d75565b61111f6040830184610d0f565b949350505050565b600061113282610d05565b915061113d83610d05565b9250827fffffffffffffffffffffffffffffffffffffffffffffffffffffffffffffffff0382111561117257611171611064565b5b828201905092915050565b60008115159050919050565b6111928161117d565b811461119d57600080fd5b50565b6000815190506111af81611189565b92915050565b6000602082840312156111cb576111ca610c2c565b5b60006111d9848285016111a0565b91505092915050565b7f5361666545524332303a204552433230206f7065726174696f6e20646964206e60008201527f6f74207375636365656400000000000000000000000000000000000000000000602082015250565b600061123e602a83610ee9565b9150611249826111e2565b604082019050919050565b6000602082019050818103600083015261126d81611231565b9050919050565b7f416464726573733a20696e73756666696369656e742062616c616e636520666f60008201527f722063616c6c0000000000000000000000000000000000000000000000000000602082015250565b60006112d0602683610ee9565b91506112db82611274565b604082019050919050565b600060208201905081810360008301526112ff816112c3565b9050919050565b600081519050919050565b600081905092915050565b60005b8381101561133a57808201518184015260208101905061131f565b83811115611349576000848401525b50505050565b600061135a82611306565b6113648185611311565b935061137481856020860161131c565b80840191505092915050565b600061138c828461134f565b915081905092915050565b7f416464726573733a2063616c6c20746f206e6f6e2d636f6e7472616374000000600082015250565b60006113cd601d83610ee9565b91506113d882611397565b602082019050919050565b600060208201905081810360008301526113fc816113c0565b9050919050565b600081519050919050565b6000601f19601f8301169050919050565b600061142a82611403565b6114348185610ee9565b935061144481856020860161131c565b61144d8161140e565b840191505092915050565b60006020820190508181036000830152611472818461141f565b90509291505056fea2646970667358221220615239b795727b920f85cb84c16cf79323d547041021abe9c5b6fa341571e50c64736f6c634300080f0033",
  "immutableReferences": {},
  "source": "// SPDX-License-Identifier: MIT\r\n// OpenZeppelin Contracts (last updated v4.5.0) (token/ERC20/utils/TokenTimelock.sol)\r\n\r\npragma solidity ^0.8.0;\r\n\r\nimport \"../node_modules/@openzeppelin/contracts/token/ERC20/IERC20.sol\";\r\nimport \"../node_modules/@openzeppelin/contracts/utils/math/SafeMath.sol\";\r\nimport \"../node_modules/@openzeppelin/contracts/token/ERC20/utils/SafeERC20.sol\";\r\nimport \"../node_modules/@openzeppelin/contracts/access/Ownable.sol\";\r\n\r\ncontract Wallet is Ownable{\r\n\r\n    using SafeMath for uint256;\r\n    using SafeERC20 for IERC20;\r\n\r\n    modifier tokenExist(bytes32 ticker){\r\n        require(tokenMapping[ticker].tokenAddress != address(0));\r\n        _;\r\n    }\r\n    \r\n\r\n    struct Token{\r\n        bytes32 ticker;\r\n        address tokenAddress;\r\n    }\r\n\r\n    mapping(bytes32 => Token) public tokenMapping;\r\n    bytes32[] public tokenList;\r\n    mapping(address => mapping(bytes32 => uint256)) public balances;\r\n\r\n\r\n\r\n    \r\n    function addToken(bytes32 ticker, address tokenAddress) external onlyOwner {\r\n        tokenMapping[ticker] = Token(ticker, tokenAddress);\r\n        tokenList.push(ticker);\r\n    }\r\n\r\n    function deposit(uint amount, bytes32 ticker) external tokenExist(ticker) {\r\n        // Require that the depositing address has sufficient balance.\r\n        IERC20(tokenMapping[ticker].tokenAddress).safeTransferFrom(msg.sender, address(this), amount); \r\n        balances[msg.sender][ticker] = balances[msg.sender][ticker].add(amount);        \r\n    }\r\n\r\n     function withdraw(uint amount, bytes32 ticker) external {\r\n        \r\n        require(balances[msg.sender][ticker] >= amount, \"Insufficient Balance\");\r\n\r\n        balances[msg.sender][ticker] = balances[msg.sender][ticker].sub(amount);\r\n        IERC20(tokenMapping[ticker].tokenAddress).safeTransfer(msg.sender, amount);\r\n    }\r\n\r\n    \r\n}",
  "sourcePath": "C:\\Users\\kaz\\OneDrive - #AskBlockchain\\contracts\\DEX\\contracts\\Wallet.sol",
  "compiler": {
    "name": "solc",
    "version": "0.8.15+commit.e14f2714.Emscripten.clang"
  },
  "schemaVersion": "3.4.8",
  "updatedAt": "2022-12-30T14:48:18.329Z",
  "devdoc": {
    "kind": "dev",
    "methods": {
      "owner()": {
        "details": "Returns the address of the current owner."
      },
      "renounceOwnership()": {
        "details": "Leaves the contract without owner. It will not be possible to call `onlyOwner` functions anymore. Can only be called by the current owner. NOTE: Renouncing ownership will leave the contract without an owner, thereby removing any functionality that is only available to the owner."
      },
      "transferOwnership(address)": {
        "details": "Transfers ownership of the contract to a new account (`newOwner`). Can only be called by the current owner."
      }
    },
    "version": 1
  },
  "userdoc": {
    "kind": "user",
    "methods": {},
    "version": 1
  }
}